{"abi":[{"type":"constructor","inputs":[{"name":"_token","type":"address","internalType":"contract IERC20"},{"name":"initialDeposit","type":"uint256","internalType":"uint256"},{"name":"initialDepositor","type":"address","internalType":"address"}],"stateMutability":"nonpayable"},{"type":"function","name":"balances","inputs":[{"name":"","type":"address","internalType":"address"}],"outputs":[{"name":"","type":"uint256","internalType":"uint256"}],"stateMutability":"view"},{"type":"function","name":"factory","inputs":[],"outputs":[{"name":"","type":"address","internalType":"address"}],"stateMutability":"view"},{"type":"function","name":"recordDeposit","inputs":[{"name":"user","type":"address","internalType":"address"},{"name":"amount","type":"uint256","internalType":"uint256"}],"outputs":[],"stateMutability":"nonpayable"},{"type":"function","name":"token","inputs":[],"outputs":[{"name":"","type":"address","internalType":"contract IERC20"}],"stateMutability":"view"},{"type":"function","name":"totalDeposits","inputs":[],"outputs":[{"name":"","type":"uint256","internalType":"uint256"}],"stateMutability":"view"}],"bytecode":{"object":"0x60c060405234801561000f575f5ffd5b50604051610841380380610841833981810160405281019061003191906101f6565b8273ffffffffffffffffffffffffffffffffffffffff1660808173ffffffffffffffffffffffffffffffffffffffff16815250503373ffffffffffffffffffffffffffffffffffffffff1660a08173ffffffffffffffffffffffffffffffffffffffff16815250505f821180156100d457505f73ffffffffffffffffffffffffffffffffffffffff168173ffffffffffffffffffffffffffffffffffffffff1614155b1561012257815f819055508160015f8373ffffffffffffffffffffffffffffffffffffffff1673ffffffffffffffffffffffffffffffffffffffff1681526020019081526020015f20819055505b505050610246565b5f5ffd5b5f73ffffffffffffffffffffffffffffffffffffffff82169050919050565b5f6101578261012e565b9050919050565b5f6101688261014d565b9050919050565b6101788161015e565b8114610182575f5ffd5b50565b5f815190506101938161016f565b92915050565b5f819050919050565b6101ab81610199565b81146101b5575f5ffd5b50565b5f815190506101c6816101a2565b92915050565b6101d58161014d565b81146101df575f5ffd5b50565b5f815190506101f0816101cc565b92915050565b5f5f5f6060848603121561020d5761020c61012a565b5b5f61021a86828701610185565b935050602061022b868287016101b8565b925050604061023c868287016101e2565b9150509250925092565b60805160a0516105d361026e5f395f8181610101015261025901525f61027d01526105d35ff3fe608060405234801561000f575f5ffd5b5060043610610055575f3560e01c80631e578bae1461005957806327e235e3146100755780637d882097146100a5578063c45a0155146100c3578063fc0c546a146100e1575b5f5ffd5b610073600480360381019061006e9190610330565b6100ff565b005b61008f600480360381019061008a919061036e565b61023d565b60405161009c91906103a8565b60405180910390f35b6100ad610252565b6040516100ba91906103a8565b60405180910390f35b6100cb610257565b6040516100d891906103d0565b60405180910390f35b6100e961027b565b6040516100f69190610444565b60405180910390f35b7f000000000000000000000000000000000000000000000000000000000000000073ffffffffffffffffffffffffffffffffffffffff163373ffffffffffffffffffffffffffffffffffffffff161461018d576040517f08c379a0000000000000000000000000000000000000000000000000000000008152600401610184906104b7565b60405180910390fd5b5f81116101cf576040517f08c379a00000000000000000000000000000000000000000000000000000000081526004016101c69061051f565b60405180910390fd5b805f5f8282546101df919061056a565b925050819055508060015f8473ffffffffffffffffffffffffffffffffffffffff1673ffffffffffffffffffffffffffffffffffffffff1681526020019081526020015f205f828254610232919061056a565b925050819055505050565b6001602052805f5260405f205f915090505481565b5f5481565b7f000000000000000000000000000000000000000000000000000000000000000081565b7f000000000000000000000000000000000000000000000000000000000000000081565b5f5ffd5b5f73ffffffffffffffffffffffffffffffffffffffff82169050919050565b5f6102cc826102a3565b9050919050565b6102dc816102c2565b81146102e6575f5ffd5b50565b5f813590506102f7816102d3565b92915050565b5f819050919050565b61030f816102fd565b8114610319575f5ffd5b50565b5f8135905061032a81610306565b92915050565b5f5f604083850312156103465761034561029f565b5b5f610353858286016102e9565b92505060206103648582860161031c565b9150509250929050565b5f602082840312156103835761038261029f565b5b5f610390848285016102e9565b91505092915050565b6103a2816102fd565b82525050565b5f6020820190506103bb5f830184610399565b92915050565b6103ca816102c2565b82525050565b5f6020820190506103e35f8301846103c1565b92915050565b5f819050919050565b5f61040c610407610402846102a3565b6103e9565b6102a3565b9050919050565b5f61041d826103f2565b9050919050565b5f61042e82610413565b9050919050565b61043e81610424565b82525050565b5f6020820190506104575f830184610435565b92915050565b5f82825260208201905092915050565b7f4e6f7420666163746f72790000000000000000000000000000000000000000005f82015250565b5f6104a1600b8361045d565b91506104ac8261046d565b602082019050919050565b5f6020820190508181035f8301526104ce81610495565b9050919050565b7f5a65726f20616d6f756e740000000000000000000000000000000000000000005f82015250565b5f610509600b8361045d565b9150610514826104d5565b602082019050919050565b5f6020820190508181035f830152610536816104fd565b9050919050565b7f4e487b71000000000000000000000000000000000000000000000000000000005f52601160045260245ffd5b5f610574826102fd565b915061057f836102fd565b92508282019050808211156105975761059661053d565b5b9291505056fea2646970667358221220bb2ba4fb7d731d520fe2a2f66e85d1a98d784e48ac126c28006248c2cf0ab6ec64736f6c63430008210033","linkReferences":{}},"methodIdentifiers":{"balances(address)":"27e235e3","factory()":"c45a0155","recordDeposit(address,uint256)":"1e578bae","token()":"fc0c546a","totalDeposits()":"7d882097"},"id":21}