{"abi":[{"type":"constructor","inputs":[{"name":"_token","type":"address","internalType":"address"}],"stateMutability":"nonpayable"},{"type":"function","name":"TOKEN","inputs":[],"outputs":[{"name":"","type":"address","internalType":"address"}],"stateMutability":"view"},{"type":"function","name":"deposit","inputs":[{"name":"amount","type":"uint256","internalType":"uint256"}],"outputs":[],"stateMutability":"nonpayable"},{"type":"function","name":"getBalance","inputs":[],"outputs":[{"name":"","type":"uint256","internalType":"uint256"}],"stateMutability":"view"},{"type":"function","name":"totalDeposited","inputs":[],"outputs":[{"name":"","type":"uint256","internalType":"uint256"}],"stateMutability":"view"},{"type":"event","name":"Deposit","inputs":[{"name":"user","type":"address","indexed":true,"internalType":"address"},{"name":"amount","type":"uint256","indexed":false,"internalType":"uint256"}],"anonymous":false},{"type":"error","name":"SafeERC20FailedOperation","inputs":[{"name":"token","type":"address","internalType":"address"}]}],"bytecode":{"object":"0x60a060405234801561000f575f5ffd5b50604051610690380380610690833981810160405281019061003191906100c9565b8073ffffffffffffffffffffffffffffffffffffffff1660808173ffffffffffffffffffffffffffffffffffffffff1681525050506100f4565b5f5ffd5b5f73ffffffffffffffffffffffffffffffffffffffff82169050919050565b5f6100988261006f565b9050919050565b6100a88161008e565b81146100b2575f5ffd5b50565b5f815190506100c38161009f565b92915050565b5f602082840312156100de576100dd61006b565b5b5f6100eb848285016100b5565b91505092915050565b6080516105776101195f395f818160c70152818161016401526101d001526105775ff3fe608060405234801561000f575f5ffd5b506004361061004a575f3560e01c806312065fe01461004e57806382bfefc81461006c578063b6b55f251461008a578063ff50abdc146100a6575b5f5ffd5b6100566100c4565b6040516100639190610360565b60405180910390f35b610074610162565b60405161008191906103b8565b60405180910390f35b6100a4600480360381019061009f91906103ff565b610186565b005b6100ae61027d565b6040516100bb9190610360565b60405180910390f35b5f7f000000000000000000000000000000000000000000000000000000000000000073ffffffffffffffffffffffffffffffffffffffff166370a08231306040518263ffffffff1660e01b815260040161011e91906103b8565b602060405180830381865afa158015610139573d5f5f3e3d5ffd5b505050506040513d601f19601f8201168201806040525081019061015d919061043e565b905090565b7f000000000000000000000000000000000000000000000000000000000000000081565b5f81116101c8576040517f08c379a00000000000000000000000000000000000000000000000000000000081526004016101bf906104c3565b60405180910390fd5b6102153330837f000000000000000000000000000000000000000000000000000000000000000073ffffffffffffffffffffffffffffffffffffffff16610282909392919063ffffffff16565b805f5f828254610225919061050e565b925050819055503373ffffffffffffffffffffffffffffffffffffffff167fe1fffcc4923d04b559f4d29a8bfc6cda04eb5b0d3c460751c2402c5c5cc9109c826040516102729190610360565b60405180910390a250565b5f5481565b6102908484848460016102d7565b6102d157836040517f5274afe70000000000000000000000000000000000000000000000000000000081526004016102c891906103b8565b60405180910390fd5b50505050565b5f5f6323b872dd60e01b9050604051815f525f1960601c87166004525f1960601c86166024528460445260205f60645f5f8c5af1925060015f51148316610335578383151615610329573d5f823e3d81fd5b5f883b113d1516831692505b806040525f606052505095945050505050565b5f819050919050565b61035a81610348565b82525050565b5f6020820190506103735f830184610351565b92915050565b5f73ffffffffffffffffffffffffffffffffffffffff82169050919050565b5f6103a282610379565b9050919050565b6103b281610398565b82525050565b5f6020820190506103cb5f8301846103a9565b92915050565b5f5ffd5b6103de81610348565b81146103e8575f5ffd5b50565b5f813590506103f9816103d5565b92915050565b5f60208284031215610414576104136103d1565b5b5f610421848285016103eb565b91505092915050565b5f81519050610438816103d5565b92915050565b5f60208284031215610453576104526103d1565b5b5f6104608482850161042a565b91505092915050565b5f82825260208201905092915050565b7f416d6f756e74206d7573742062652067726561746572207468616e20300000005f82015250565b5f6104ad601d83610469565b91506104b882610479565b602082019050919050565b5f6020820190508181035f8301526104da816104a1565b9050919050565b7f4e487b71000000000000000000000000000000000000000000000000000000005f52601160045260245ffd5b5f61051882610348565b915061052383610348565b925082820190508082111561053b5761053a6104e1565b5b9291505056fea2646970667358221220979314c1129644504d4102836e3526fef10228e8c39a5f876b2de3404d67a7c764736f6c63430008210033","linkReferences":{}},"methodIdentifiers":{"TOKEN()":"82bfefc8","deposit(uint256)":"b6b55f25","getBalance()":"12065fe0","totalDeposited()":"ff50abdc"},"id":40}