{"abi":[{"type":"constructor","inputs":[],"stateMutability":"nonpayable"},{"type":"function","name":"addLiquidity","inputs":[{"name":"token","type":"address","internalType":"address"},{"name":"amount","type":"uint256","internalType":"uint256"}],"outputs":[{"name":"vault","type":"address","internalType":"address"}],"stateMutability":"nonpayable"},{"type":"function","name":"createVaultAndDeposit","inputs":[{"name":"token","type":"address","internalType":"address"},{"name":"amount","type":"uint256","internalType":"uint256"}],"outputs":[{"name":"vault","type":"address","internalType":"address"},{"name":"nftId","type":"uint256","internalType":"uint256"}],"stateMutability":"nonpayable"},{"type":"function","name":"deterministicVaultAddress","inputs":[{"name":"token","type":"address","internalType":"address"}],"outputs":[{"name":"predicted","type":"address","internalType":"address"}],"stateMutability":"view"},{"type":"function","name":"vaultForToken","inputs":[{"name":"","type":"address","internalType":"address"}],"outputs":[{"name":"","type":"address","internalType":"address"}],"stateMutability":"view"},{"type":"function","name":"vaultNFT","inputs":[],"outputs":[{"name":"","type":"address","internalType":"contract VaultNFT"}],"stateMutability":"view"},{"type":"event","name":"LiquidityAdded","inputs":[{"name":"token","type":"address","indexed":true,"internalType":"address"},{"name":"vault","type":"address","indexed":true,"internalType":"address"},{"name":"user","type":"address","indexed":true,"internalType":"address"},{"name":"amount","type":"uint256","indexed":false,"internalType":"uint256"}],"anonymous":false},{"type":"event","name":"VaultCreated","inputs":[{"name":"token","type":"address","indexed":true,"internalType":"address"},{"name":"vault","type":"address","indexed":true,"internalType":"address"},{"name":"creator","type":"address","indexed":true,"internalType":"address"},{"name":"nftId","type":"uint256","indexed":false,"internalType":"uint256"},{"name":"initialDeposit","type":"uint256","indexed":false,"internalType":"uint256"}],"anonymous":false}],"bytecode":{"object":"0x60a060405234801561000f575f5ffd5b503060405161001d90610079565b61002791906100c5565b604051809103905ff080158015610040573d5f5f3e3d5ffd5b5073ffffffffffffffffffffffffffffffffffffffff1660808173ffffffffffffffffffffffffffffffffffffffff16815250506100de565b613b9e80611a2f83390190565b5f73ffffffffffffffffffffffffffffffffffffffff82169050919050565b5f6100af82610086565b9050919050565b6100bf816100a5565b82525050565b5f6020820190506100d85f8301846100b6565b92915050565b6080516119326100fd5f395f81816103ef01526106d801526119325ff3fe608060405234801561000f575f5ffd5b5060043610610055575f3560e01c8063566887001461005957806384dea1a114610089578063c0a40fb2146100a7578063cd4419a4146100d7578063fdd16e5714610108575b5f5ffd5b610073600480360381019061006e9190610a9d565b610138565b6040516100809190610aea565b60405180910390f35b6100916103ed565b60405161009e9190610b5e565b60405180910390f35b6100c160048036038101906100bc9190610b77565b610411565b6040516100ce9190610aea565b60405180910390f35b6100f160048036038101906100ec9190610a9d565b6104d1565b6040516100ff929190610bb1565b60405180910390f35b610122600480360381019061011d9190610b77565b6109a1565b60405161012f9190610aea565b60405180910390f35b5f5f821161017b576040517f08c379a000000000000000000000000000000000000000000000000000000000815260040161017290610c32565b60405180910390fd5b5f5f8473ffffffffffffffffffffffffffffffffffffffff1673ffffffffffffffffffffffffffffffffffffffff1681526020019081526020015f205f9054906101000a900473ffffffffffffffffffffffffffffffffffffffff1690505f73ffffffffffffffffffffffffffffffffffffffff168173ffffffffffffffffffffffffffffffffffffffff1603610247576040517f08c379a000000000000000000000000000000000000000000000000000000000815260040161023e90610c9a565b60405180910390fd5b8073ffffffffffffffffffffffffffffffffffffffff16631e578bae33846040518363ffffffff1660e01b8152600401610282929190610bb1565b5f604051808303815f87803b158015610299575f5ffd5b505af11580156102ab573d5f5f3e3d5ffd5b505050508273ffffffffffffffffffffffffffffffffffffffff166323b872dd3383856040518463ffffffff1660e01b81526004016102ec93929190610cb8565b6020604051808303815f875af1158015610308573d5f5f3e3d5ffd5b505050506040513d601f19601f8201168201806040525081019061032c9190610d22565b61036b576040517f08c379a000000000000000000000000000000000000000000000000000000000815260040161036290610d97565b60405180910390fd5b3373ffffffffffffffffffffffffffffffffffffffff168173ffffffffffffffffffffffffffffffffffffffff168473ffffffffffffffffffffffffffffffffffffffff167f2db8fc28326a114fe00f000205e13b79bbdeaeae6568b34ccf9fe0991da2285e856040516103df9190610db5565b60405180910390a492915050565b7f000000000000000000000000000000000000000000000000000000000000000081565b5f5f61041c836109d0565b90505f6040518060200161042f906109ff565b6020820181038252601f19601f82011660405250845f5f60405160200161045893929190610dee565b604051602081830303815290604052604051602001610478929190610e75565b60405160208183030381529060405290505f60ff60f81b308484805190602001206040516020016104ac9493929190610f51565b604051602081830303815290604052805190602001209050805f1c9350505050919050565b5f5f5f8311610515576040517f08c379a000000000000000000000000000000000000000000000000000000000815260040161050c90610c32565b60405180910390fd5b5f73ffffffffffffffffffffffffffffffffffffffff168473ffffffffffffffffffffffffffffffffffffffff1603610583576040517f08c379a000000000000000000000000000000000000000000000000000000000815260040161057a90610fe8565b60405180910390fd5b5f5f8573ffffffffffffffffffffffffffffffffffffffff1673ffffffffffffffffffffffffffffffffffffffff1681526020019081526020015f205f9054906101000a900473ffffffffffffffffffffffffffffffffffffffff1691505f73ffffffffffffffffffffffffffffffffffffffff168273ffffffffffffffffffffffffffffffffffffffff16036107f9575f61061e856109d0565b905080858533604051610630906109ff565b61063c93929190610dee565b8190604051809103905ff5905080158015610659573d5f5f3e3d5ffd5b509250825f5f8773ffffffffffffffffffffffffffffffffffffffff1673ffffffffffffffffffffffffffffffffffffffff1681526020019081526020015f205f6101000a81548173ffffffffffffffffffffffffffffffffffffffff021916908373ffffffffffffffffffffffffffffffffffffffff1602179055507f000000000000000000000000000000000000000000000000000000000000000073ffffffffffffffffffffffffffffffffffffffff16633579c3003385886040518463ffffffff1660e01b815260040161073393929190611006565b6020604051808303815f875af115801561074f573d5f5f3e3d5ffd5b505050506040513d601f19601f82011682018060405250810190610773919061104f565b91503373ffffffffffffffffffffffffffffffffffffffff168373ffffffffffffffffffffffffffffffffffffffff168673ffffffffffffffffffffffffffffffffffffffff167ff5e28822e1b5786a93e96fbc576e8b4a152b6603306deef493d6066624ee71fa85886040516107eb92919061107a565b60405180910390a450610862565b8173ffffffffffffffffffffffffffffffffffffffff16631e578bae33856040518363ffffffff1660e01b8152600401610834929190610bb1565b5f604051808303815f87803b15801561084b575f5ffd5b505af115801561085d573d5f5f3e3d5ffd5b505050505b8373ffffffffffffffffffffffffffffffffffffffff166323b872dd3384866040518463ffffffff1660e01b815260040161089f93929190610cb8565b6020604051808303815f875af11580156108bb573d5f5f3e3d5ffd5b505050506040513d601f19601f820116820180604052508101906108df9190610d22565b61091e576040517f08c379a000000000000000000000000000000000000000000000000000000000815260040161091590610d97565b60405180910390fd5b3373ffffffffffffffffffffffffffffffffffffffff168273ffffffffffffffffffffffffffffffffffffffff168573ffffffffffffffffffffffffffffffffffffffff167f2db8fc28326a114fe00f000205e13b79bbdeaeae6568b34ccf9fe0991da2285e866040516109929190610db5565b60405180910390a49250929050565b5f602052805f5260405f205f915054906101000a900473ffffffffffffffffffffffffffffffffffffffff1681565b5f816040516020016109e291906110a1565b604051602081830303815290604052805190602001209050919050565b610841806110bc83390190565b5f5ffd5b5f73ffffffffffffffffffffffffffffffffffffffff82169050919050565b5f610a3982610a10565b9050919050565b610a4981610a2f565b8114610a53575f5ffd5b50565b5f81359050610a6481610a40565b92915050565b5f819050919050565b610a7c81610a6a565b8114610a86575f5ffd5b50565b5f81359050610a9781610a73565b92915050565b5f5f60408385031215610ab357610ab2610a0c565b5b5f610ac085828601610a56565b9250506020610ad185828601610a89565b9150509250929050565b610ae481610a2f565b82525050565b5f602082019050610afd5f830184610adb565b92915050565b5f819050919050565b5f610b26610b21610b1c84610a10565b610b03565b610a10565b9050919050565b5f610b3782610b0c565b9050919050565b5f610b4882610b2d565b9050919050565b610b5881610b3e565b82525050565b5f602082019050610b715f830184610b4f565b92915050565b5f60208284031215610b8c57610b8b610a0c565b5b5f610b9984828501610a56565b91505092915050565b610bab81610a6a565b82525050565b5f604082019050610bc45f830185610adb565b610bd16020830184610ba2565b9392505050565b5f82825260208201905092915050565b7f416d6f756e74207a65726f0000000000000000000000000000000000000000005f82015250565b5f610c1c600b83610bd8565b9150610c2782610be8565b602082019050919050565b5f6020820190508181035f830152610c4981610c10565b9050919050565b7f5661756c74206e6f7420637265617465640000000000000000000000000000005f82015250565b5f610c84601183610bd8565b9150610c8f82610c50565b602082019050919050565b5f6020820190508181035f830152610cb181610c78565b9050919050565b5f606082019050610ccb5f830186610adb565b610cd86020830185610adb565b610ce56040830184610ba2565b949350505050565b5f8115159050919050565b610d0181610ced565b8114610d0b575f5ffd5b50565b5f81519050610d1c81610cf8565b92915050565b5f60208284031215610d3757610d36610a0c565b5b5f610d4484828501610d0e565b91505092915050565b7f5472616e73666572206661696c656400000000000000000000000000000000005f82015250565b5f610d81600f83610bd8565b9150610d8c82610d4d565b602082019050919050565b5f6020820190508181035f830152610dae81610d75565b9050919050565b5f602082019050610dc85f830184610ba2565b92915050565b5f610dd882610b2d565b9050919050565b610de881610dce565b82525050565b5f606082019050610e015f830186610ddf565b610e0e6020830185610ba2565b610e1b6040830184610adb565b949350505050565b5f81519050919050565b5f81905092915050565b8281835e5f83830152505050565b5f610e4f82610e23565b610e598185610e2d565b9350610e69818560208601610e37565b80840191505092915050565b5f610e808285610e45565b9150610e8c8284610e45565b91508190509392505050565b5f7fff0000000000000000000000000000000000000000000000000000000000000082169050919050565b5f819050919050565b610edd610ed882610e98565b610ec3565b82525050565b5f8160601b9050919050565b5f610ef982610ee3565b9050919050565b5f610f0a82610eef565b9050919050565b610f22610f1d82610a2f565b610f00565b82525050565b5f819050919050565b5f819050919050565b610f4b610f4682610f28565b610f31565b82525050565b5f610f5c8287610ecc565b600182019150610f6c8286610f11565b601482019150610f7c8285610f3a565b602082019150610f8c8284610f3a565b60208201915081905095945050505050565b7f546f6b656e207a65726f000000000000000000000000000000000000000000005f82015250565b5f610fd2600a83610bd8565b9150610fdd82610f9e565b602082019050919050565b5f6020820190508181035f830152610fff81610fc6565b9050919050565b5f6060820190506110195f830186610adb565b6110266020830185610adb565b6110336040830184610adb565b949350505050565b5f8151905061104981610a73565b92915050565b5f6020828403121561106457611063610a0c565b5b5f6110718482850161103b565b91505092915050565b5f60408201905061108d5f830185610ba2565b61109a6020830184610ba2565b9392505050565b5f6110ac8284610f11565b6014820191508190509291505056fe60c060405234801561000f575f5ffd5b50604051610841380380610841833981810160405281019061003191906101f6565b8273ffffffffffffffffffffffffffffffffffffffff1660808173ffffffffffffffffffffffffffffffffffffffff16815250503373ffffffffffffffffffffffffffffffffffffffff1660a08173ffffffffffffffffffffffffffffffffffffffff16815250505f821180156100d457505f73ffffffffffffffffffffffffffffffffffffffff168173ffffffffffffffffffffffffffffffffffffffff1614155b1561012257815f819055508160015f8373ffffffffffffffffffffffffffffffffffffffff1673ffffffffffffffffffffffffffffffffffffffff1681526020019081526020015f20819055505b505050610246565b5f5ffd5b5f73ffffffffffffffffffffffffffffffffffffffff82169050919050565b5f6101578261012e565b9050919050565b5f6101688261014d565b9050919050565b6101788161015e565b8114610182575f5ffd5b50565b5f815190506101938161016f565b92915050565b5f819050919050565b6101ab81610199565b81146101b5575f5ffd5b50565b5f815190506101c6816101a2565b92915050565b6101d58161014d565b81146101df575f5ffd5b50565b5f815190506101f0816101cc565b92915050565b5f5f5f6060848603121561020d5761020c61012a565b5b5f61021a86828701610185565b935050602061022b868287016101b8565b925050604061023c868287016101e2565b9150509250925092565b60805160a0516105d361026e5f395f8181610101015261025901525f61027d01526105d35ff3fe608060405234801561000f575f5ffd5b5060043610610055575f3560e01c80631e578bae1461005957806327e235e3146100755780637d882097146100a5578063c45a0155146100c3578063fc0c546a146100e1575b5f5ffd5b610073600480360381019061006e9190610330565b6100ff565b005b61008f600480360381019061008a919061036e565b61023d565b60405161009c91906103a8565b60405180910390f35b6100ad610252565b6040516100ba91906103a8565b60405180910390f35b6100cb610257565b6040516100d891906103d0565b60405180910390f35b6100e961027b565b6040516100f69190610444565b60405180910390f35b7f000000000000000000000000000000000000000000000000000000000000000073ffffffffffffffffffffffffffffffffffffffff163373ffffffffffffffffffffffffffffffffffffffff161461018d576040517f08c379a0000000000000000000000000000000000000000000000000000000008152600401610184906104b7565b60405180910390fd5b5f81116101cf576040517f08c379a00000000000000000000000000000000000000000000000000000000081526004016101c69061051f565b60405180910390fd5b805f5f8282546101df919061056a565b925050819055508060015f8473ffffffffffffffffffffffffffffffffffffffff1673ffffffffffffffffffffffffffffffffffffffff1681526020019081526020015f205f828254610232919061056a565b925050819055505050565b6001602052805f5260405f205f915090505481565b5f5481565b7f000000000000000000000000000000000000000000000000000000000000000081565b7f000000000000000000000000000000000000000000000000000000000000000081565b5f5ffd5b5f73ffffffffffffffffffffffffffffffffffffffff82169050919050565b5f6102cc826102a3565b9050919050565b6102dc816102c2565b81146102e6575f5ffd5b50565b5f813590506102f7816102d3565b92915050565b5f819050919050565b61030f816102fd565b8114610319575f5ffd5b50565b5f8135905061032a81610306565b92915050565b5f5f604083850312156103465761034561029f565b5b5f610353858286016102e9565b92505060206103648582860161031c565b9150509250929050565b5f602082840312156103835761038261029f565b5b5f610390848285016102e9565b91505092915050565b6103a2816102fd565b82525050565b5f6020820190506103bb5f830184610399565b92915050565b6103ca816102c2565b82525050565b5f6020820190506103e35f8301846103c1565b92915050565b5f819050919050565b5f61040c610407610402846102a3565b6103e9565b6102a3565b9050919050565b5f61041d826103f2565b9050919050565b5f61042e82610413565b9050919050565b61043e81610424565b82525050565b5f6020820190506104575f830184610435565b92915050565b5f82825260208201905092915050565b7f4e6f7420666163746f72790000000000000000000000000000000000000000005f82015250565b5f6104a1600b8361045d565b91506104ac8261046d565b602082019050919050565b5f6020820190508181035f8301526104ce81610495565b9050919050565b7f5a65726f20616d6f756e740000000000000000000000000000000000000000005f82015250565b5f610509600b8361045d565b9150610514826104d5565b602082019050919050565b5f6020820190508181035f830152610536816104fd565b9050919050565b7f4e487b71000000000000000000000000000000000000000000000000000000005f52601160045260245ffd5b5f610574826102fd565b915061057f836102fd565b92508282019050808211156105975761059661053d565b5b9291505056fea2646970667358221220bb2ba4fb7d731d520fe2a2f66e85d1a98d784e48ac126c28006248c2cf0ab6ec64736f6c63430008210033a26469706673582212203bb1f1f2c11222c553f1aa10491026f269104334a329bf4819a1ad7b943efd8864736f6c6343000821003360a06040526040518060400160405280600e81526020017f5661756c7420506f736974696f6e0000000000000000000000000000000000008152505f90816100479190610347565b506040518060400160405280600981526020017f5641554c542d4e465400000000000000000000000000000000000000000000008152506001908161008c9190610347565b50600160075534801561009d575f5ffd5b50604051613b9e380380613b9e83398181016040528101906100bf9190610474565b8073ffffffffffffffffffffffffffffffffffffffff1660808173ffffffffffffffffffffffffffffffffffffffff16815250505061049f565b5f81519050919050565b7f4e487b71000000000000000000000000000000000000000000000000000000005f52604160045260245ffd5b7f4e487b71000000000000000000000000000000000000000000000000000000005f52602260045260245ffd5b5f600282049050600182168061017457607f821691505b60208210810361018757610186610130565b5b50919050565b5f819050815f5260205f209050919050565b5f6020601f8301049050919050565b5f82821b905092915050565b5f600883026101e97fffffffffffffffffffffffffffffffffffffffffffffffffffffffffffffffff826101ae565b6101f386836101ae565b95508019841693508086168417925050509392505050565b5f819050919050565b5f819050919050565b5f61023761023261022d8461020b565b610214565b61020b565b9050919050565b5f819050919050565b6102508361021d565b61026461025c8261023e565b8484546101ba565b825550505050565b5f5f905090565b61027b61026c565b610286818484610247565b505050565b5f5b828110156102ac576102a15f828401610273565b60018101905061028d565b505050565b601f8211156102ff57828211156102fe576102cb8161018d565b6102d48361019f565b6102dd8561019f565b60208610156102ea575f90505b8083016102f98284038261028b565b505050505b5b505050565b5f82821c905092915050565b5f61031f5f1984600802610304565b1980831691505092915050565b5f6103378383610310565b9150826002028217905092915050565b610350826100f9565b67ffffffffffffffff81111561036957610368610103565b5b610373825461015d565b61037e8282856102b1565b5f60209050601f8311600181146103af575f841561039d578287015190505b6103a7858261032c565b86555061040e565b601f1984166103bd8661018d565b5f5b828110156103e4578489015182556001820191506020850194506020810190506103bf565b8683101561040157848901516103fd601f891682610310565b8355505b6001600288020188555050505b505050505050565b5f5ffd5b5f73ffffffffffffffffffffffffffffffffffffffff82169050919050565b5f6104438261041a565b9050919050565b61045381610439565b811461045d575f5ffd5b50565b5f8151905061046e8161044a565b92915050565b5f6020828403121561048957610488610416565b5b5f61049684828501610460565b91505092915050565b6080516136e06104be5f395f818161097101526110ce01526136e05ff3fe608060405234801561000f575f5ffd5b50600436106100fe575f3560e01c806370a0823111610095578063b88d4fde11610064578063b88d4fde146102be578063c45a0155146102da578063c87b56dd146102f8578063e985e9c514610328576100fe565b806370a0823114610222578063929060d81461025257806395d89b4114610284578063a22cb465146102a2576100fe565b80633579c300116100d15780633579c3001461018857806342842e0e146101b857806361b8ce8c146101d45780636352211e146101f2576100fe565b806306fdde0314610102578063081812fc14610120578063095ea7b31461015057806323b872dd1461016c575b5f5ffd5b61010a610358565b6040516101179190611ce2565b60405180910390f35b61013a60048036038101906101359190611d46565b6103e3565b6040516101479190611db0565b60405180910390f35b61016a60048036038101906101659190611df3565b6104ba565b005b61018660048036038101906101819190611e31565b610662565b005b6101a2600480360381019061019d9190611e81565b61096e565b6040516101af9190611ee0565b60405180910390f35b6101d260048036038101906101cd9190611e31565b610ccf565b005b6101dc610cdf565b6040516101e99190611ee0565b60405180910390f35b61020c60048036038101906102079190611d46565b610ce5565b6040516102199190611db0565b60405180910390f35b61023c60048036038101906102379190611ef9565b610d91565b6040516102499190611ee0565b60405180910390f35b61026c60048036038101906102679190611d46565b610e45565b60405161027b93929190611f24565b60405180910390f35b61028c610ec8565b6040516102999190611ce2565b60405180910390f35b6102bc60048036038101906102b79190611f8e565b610f54565b005b6102d860048036038101906102d3919061202d565b6110ba565b005b6102e26110cc565b6040516102ef9190611db0565b60405180910390f35b610312600480360381019061030d9190611d46565b6110f0565b60405161031f9190611ce2565b60405180910390f35b610342600480360381019061033d91906120b1565b6114e5565b60405161034f91906120fe565b60405180910390f35b5f805461036490612144565b80601f016020809104026020016040519081016040528092919081815260200182805461039090612144565b80156103db5780601f106103b2576101008083540402835291602001916103db565b820191905f5260205f20905b8154815290600101906020018083116103be57829003601f168201915b505050505081565b5f5f73ffffffffffffffffffffffffffffffffffffffff1660025f8481526020019081526020015f205f9054906101000a900473ffffffffffffffffffffffffffffffffffffffff1673ffffffffffffffffffffffffffffffffffffffff1603610482576040517f08c379a0000000000000000000000000000000000000000000000000000000008152600401610479906121be565b60405180910390fd5b60045f8381526020019081526020015f205f9054906101000a900473ffffffffffffffffffffffffffffffffffffffff169050919050565b5f6104c482610ce5565b90508073ffffffffffffffffffffffffffffffffffffffff168373ffffffffffffffffffffffffffffffffffffffff1603610534576040517f08c379a000000000000000000000000000000000000000000000000000000000815260040161052b90612226565b60405180910390fd5b8073ffffffffffffffffffffffffffffffffffffffff163373ffffffffffffffffffffffffffffffffffffffff161480610574575061057381336114e5565b5b6105b3576040517f08c379a00000000000000000000000000000000000000000000000000000000081526004016105aa9061228e565b60405180910390fd5b8260045f8481526020019081526020015f205f6101000a81548173ffffffffffffffffffffffffffffffffffffffff021916908373ffffffffffffffffffffffffffffffffffffffff160217905550818373ffffffffffffffffffffffffffffffffffffffff168273ffffffffffffffffffffffffffffffffffffffff167f8c5be1e5ebec7d5bd14f71427d1e84f3dd0314c0f7b2291e5b200ac8c7c3b92560405160405180910390a4505050565b5f61066c82610ce5565b90508373ffffffffffffffffffffffffffffffffffffffff168173ffffffffffffffffffffffffffffffffffffffff16146106dc576040517f08c379a00000000000000000000000000000000000000000000000000000000081526004016106d3906122f6565b60405180910390fd5b5f73ffffffffffffffffffffffffffffffffffffffff168373ffffffffffffffffffffffffffffffffffffffff160361074a576040517f08c379a00000000000000000000000000000000000000000000000000000000081526004016107419061235e565b60405180910390fd5b5f8173ffffffffffffffffffffffffffffffffffffffff163373ffffffffffffffffffffffffffffffffffffffff1614806107b857503373ffffffffffffffffffffffffffffffffffffffff166107a0846103e3565b73ffffffffffffffffffffffffffffffffffffffff16145b806107c957506107c882336114e5565b5b90508061080b576040517f08c379a00000000000000000000000000000000000000000000000000000000081526004016108029061228e565b60405180910390fd5b6108155f84611573565b600160035f8773ffffffffffffffffffffffffffffffffffffffff1673ffffffffffffffffffffffffffffffffffffffff1681526020019081526020015f205f82825461086291906123a9565b92505081905550600160035f8673ffffffffffffffffffffffffffffffffffffffff1673ffffffffffffffffffffffffffffffffffffffff1681526020019081526020015f205f8282546108b691906123dc565b925050819055508360025f8581526020019081526020015f205f6101000a81548173ffffffffffffffffffffffffffffffffffffffff021916908373ffffffffffffffffffffffffffffffffffffffff160217905550828473ffffffffffffffffffffffffffffffffffffffff168673ffffffffffffffffffffffffffffffffffffffff167fddf252ad1be2c89b69c2b068fc378daa952ba7f163c4a11628f55a4df523b3ef60405160405180910390a45050505050565b5f7f000000000000000000000000000000000000000000000000000000000000000073ffffffffffffffffffffffffffffffffffffffff163373ffffffffffffffffffffffffffffffffffffffff16146109fd576040517f08c379a00000000000000000000000000000000000000000000000000000000081526004016109f490612459565b60405180910390fd5b5f73ffffffffffffffffffffffffffffffffffffffff168473ffffffffffffffffffffffffffffffffffffffff1603610a6b576040517f08c379a0000000000000000000000000000000000000000000000000000000008152600401610a629061235e565b60405180910390fd5b6007549050600160075f828254610a8291906123dc565b925050819055508360025f8381526020019081526020015f205f6101000a81548173ffffffffffffffffffffffffffffffffffffffff021916908373ffffffffffffffffffffffffffffffffffffffff160217905550600160035f8673ffffffffffffffffffffffffffffffffffffffff1673ffffffffffffffffffffffffffffffffffffffff1681526020019081526020015f205f828254610b2591906123dc565b9250508190555060405180606001604052808473ffffffffffffffffffffffffffffffffffffffff1681526020018373ffffffffffffffffffffffffffffffffffffffff1681526020018573ffffffffffffffffffffffffffffffffffffffff1681525060065f8381526020019081526020015f205f820151815f015f6101000a81548173ffffffffffffffffffffffffffffffffffffffff021916908373ffffffffffffffffffffffffffffffffffffffff1602179055506020820151816001015f6101000a81548173ffffffffffffffffffffffffffffffffffffffff021916908373ffffffffffffffffffffffffffffffffffffffff1602179055506040820151816002015f6101000a81548173ffffffffffffffffffffffffffffffffffffffff021916908373ffffffffffffffffffffffffffffffffffffffff160217905550905050808473ffffffffffffffffffffffffffffffffffffffff165f73ffffffffffffffffffffffffffffffffffffffff167fddf252ad1be2c89b69c2b068fc378daa952ba7f163c4a11628f55a4df523b3ef60405160405180910390a49392505050565b610cda838383610662565b505050565b60075481565b5f5f60025f8481526020019081526020015f205f9054906101000a900473ffffffffffffffffffffffffffffffffffffffff1690505f73ffffffffffffffffffffffffffffffffffffffff168173ffffffffffffffffffffffffffffffffffffffff1603610d88576040517f08c379a0000000000000000000000000000000000000000000000000000000008152600401610d7f906121be565b60405180910390fd5b80915050919050565b5f5f73ffffffffffffffffffffffffffffffffffffffff168273ffffffffffffffffffffffffffffffffffffffff1603610e00576040517f08c379a0000000000000000000000000000000000000000000000000000000008152600401610df79061235e565b60405180910390fd5b60035f8373ffffffffffffffffffffffffffffffffffffffff1673ffffffffffffffffffffffffffffffffffffffff1681526020019081526020015f20549050919050565b6006602052805f5260405f205f91509050805f015f9054906101000a900473ffffffffffffffffffffffffffffffffffffffff1690806001015f9054906101000a900473ffffffffffffffffffffffffffffffffffffffff1690806002015f9054906101000a900473ffffffffffffffffffffffffffffffffffffffff16905083565b60018054610ed590612144565b80601f0160208091040260200160405190810160405280929190818152602001828054610f0190612144565b8015610f4c5780601f10610f2357610100808354040283529160200191610f4c565b820191905f5260205f20905b815481529060010190602001808311610f2f57829003601f168201915b505050505081565b3373ffffffffffffffffffffffffffffffffffffffff168273ffffffffffffffffffffffffffffffffffffffff1603610fc2576040517f08c379a0000000000000000000000000000000000000000000000000000000008152600401610fb9906124c1565b60405180910390fd5b8060055f3373ffffffffffffffffffffffffffffffffffffffff1673ffffffffffffffffffffffffffffffffffffffff1681526020019081526020015f205f8473ffffffffffffffffffffffffffffffffffffffff1673ffffffffffffffffffffffffffffffffffffffff1681526020019081526020015f205f6101000a81548160ff0219169083151502179055508173ffffffffffffffffffffffffffffffffffffffff163373ffffffffffffffffffffffffffffffffffffffff167f17307eab39ab6107e8899845ad3d59bd9653f200f220920489ca2b5937696c31836040516110ae91906120fe565b60405180910390a35050565b6110c5858585610662565b5050505050565b7f000000000000000000000000000000000000000000000000000000000000000081565b60605f60065f8481526020019081526020015f206040518060600160405290815f82015f9054906101000a900473ffffffffffffffffffffffffffffffffffffffff1673ffffffffffffffffffffffffffffffffffffffff1673ffffffffffffffffffffffffffffffffffffffff168152602001600182015f9054906101000a900473ffffffffffffffffffffffffffffffffffffffff1673ffffffffffffffffffffffffffffffffffffffff1673ffffffffffffffffffffffffffffffffffffffff168152602001600282015f9054906101000a900473ffffffffffffffffffffffffffffffffffffffff1673ffffffffffffffffffffffffffffffffffffffff1673ffffffffffffffffffffffffffffffffffffffff168152505090505f73ffffffffffffffffffffffffffffffffffffffff16815f015173ffffffffffffffffffffffffffffffffffffffff1603611280576040517f08c379a0000000000000000000000000000000000000000000000000000000008152600401611277906121be565b60405180910390fd5b5f815f015190505f8173ffffffffffffffffffffffffffffffffffffffff16637d8820976040518163ffffffff1660e01b8152600401602060405180830381865afa1580156112d1573d5f5f3e3d5ffd5b505050506040513d601f19601f820116820180604052508101906112f591906124f3565b90505f836020015190505f8173ffffffffffffffffffffffffffffffffffffffff166306fdde036040518163ffffffff1660e01b81526004015f60405180830381865afa158015611348573d5f5f3e3d5ffd5b505050506040513d5f823e3d601f19601f820116820180604052508101906113709190612638565b90505f8273ffffffffffffffffffffffffffffffffffffffff166395d89b416040518163ffffffff1660e01b81526004015f60405180830381865afa1580156113bb573d5f5f3e3d5ffd5b505050506040513d5f823e3d601f19601f820116820180604052508101906113e39190612638565b90505f8373ffffffffffffffffffffffffffffffffffffffff1663313ce5676040518163ffffffff1660e01b8152600401602060405180830381865afa15801561142f573d5f5f3e3d5ffd5b505050506040513d601f19601f8201168201806040525081019061145391906126b5565b90505f6114708484848b602001518c5f01518d604001518c611629565b90505f838561147e8461168f565b866114888b61181c565b60405160200161149c959493929190612a00565b60405160208183030381529060405290506114b68161168f565b6040516020016114c69190612af7565b6040516020818303038152906040529950505050505050505050919050565b5f60055f8473ffffffffffffffffffffffffffffffffffffffff1673ffffffffffffffffffffffffffffffffffffffff1681526020019081526020015f205f8373ffffffffffffffffffffffffffffffffffffffff1673ffffffffffffffffffffffffffffffffffffffff1681526020019081526020015f205f9054906101000a900460ff16905092915050565b8160045f8381526020019081526020015f205f6101000a81548173ffffffffffffffffffffffffffffffffffffffff021916908373ffffffffffffffffffffffffffffffffffffffff160217905550808273ffffffffffffffffffffffffffffffffffffffff166115e383610ce5565b73ffffffffffffffffffffffffffffffffffffffff167f8c5be1e5ebec7d5bd14f71427d1e84f3dd0314c0f7b2291e5b200ac8c7c3b92560405160405180910390a45050565b606087876116398860ff1661181c565b61164288611975565b61164b88611975565b61165488611975565b61165d8861181c565b6040516020016116739796959493929190613368565b6040516020818303038152906040529050979650505050505050565b60605f825190505f81036116b45760405180602001604052805f815250915050611817565b5f60036002836116c491906123dc565b6116ce91906134f6565b60046116da9190613526565b90505f6020826116ea91906123dc565b67ffffffffffffffff81111561170357611702612522565b5b6040519080825280601f01601f1916602001820160405280156117355781602001600182028036833780820191505090505b5090505f60405180606001604052806040815260200161366b60409139905060018101602083015f5b868110156117d45760038101905062ffffff816020018a015116603f8160121c168401518060081b905060ff603f83600c1c1686015116810190508060081b905060ff603f8360061c1686015116810190508060081b905060ff603f83168601511681019050808452600484019350505061175e565b5060038606600181146117ee57600281146117fe57611809565b613d3d60f01b6002830352611809565b603d60f81b60018303525b508484525050819450505050505b919050565b60605f8203611862576040518060400160405280600181526020017f30000000000000000000000000000000000000000000000000000000000000008152509050611970565b5f8290505f5b5f821461189157808061187a90613567565b915050600a8261188a91906134f6565b9150611868565b5f8167ffffffffffffffff8111156118ac576118ab612522565b5b6040519080825280601f01601f1916602001820160405280156118de5781602001600182028036833780820191505090505b5090505b5f8514611969576001826118f691906123a9565b9150600a8561190591906135ae565b603061191191906123dc565b60f81b818381518110611927576119266135de565b5b60200101907effffffffffffffffffffffffffffffffffffffffffffffffffffffffffffff191690815f1a905350600a8561196291906134f6565b94506118e2565b8093505050505b919050565b606061199f8260405160200161198b9190613650565b6040516020818303038152906040526119a6565b9050919050565b60605f7f303132333435363738396162636465660000000000000000000000000000000090505f600284516119db9190613526565b60026119e791906123dc565b67ffffffffffffffff811115611a00576119ff612522565b5b6040519080825280601f01601f191660200182016040528015611a325781602001600182028036833780820191505090505b5090507f3000000000000000000000000000000000000000000000000000000000000000815f81518110611a6957611a686135de565b5b60200101907effffffffffffffffffffffffffffffffffffffffffffffffffffffffffffff191690815f1a9053507f780000000000000000000000000000000000000000000000000000000000000081600181518110611acc57611acb6135de565b5b60200101907effffffffffffffffffffffffffffffffffffffffffffffffffffffffffffff191690815f1a9053505f5f90505b8451811015611c6757826004868381518110611b1e57611b1d6135de565b5b602001015160f81c60f81b7effffffffffffffffffffffffffffffffffffffffffffffffffffffffffffff1916901c60f81c60ff1660108110611b6457611b636135de565b5b1a60f81b82600283611b769190613526565b6002611b8291906123dc565b81518110611b9357611b926135de565b5b60200101907effffffffffffffffffffffffffffffffffffffffffffffffffffffffffffff191690815f1a90535082600f60f81b868381518110611bda57611bd96135de565b5b602001015160f81c60f81b1660f81c60ff1660108110611bfd57611bfc6135de565b5b1a60f81b82600283611c0f9190613526565b6003611c1b91906123dc565b81518110611c2c57611c2b6135de565b5b60200101907effffffffffffffffffffffffffffffffffffffffffffffffffffffffffffff191690815f1a9053508080600101915050611aff565b508092505050919050565b5f81519050919050565b5f82825260208201905092915050565b8281835e5f83830152505050565b5f601f19601f8301169050919050565b5f611cb482611c72565b611cbe8185611c7c565b9350611cce818560208601611c8c565b611cd781611c9a565b840191505092915050565b5f6020820190508181035f830152611cfa8184611caa565b905092915050565b5f604051905090565b5f5ffd5b5f5ffd5b5f819050919050565b611d2581611d13565b8114611d2f575f5ffd5b50565b5f81359050611d4081611d1c565b92915050565b5f60208284031215611d5b57611d5a611d0b565b5b5f611d6884828501611d32565b91505092915050565b5f73ffffffffffffffffffffffffffffffffffffffff82169050919050565b5f611d9a82611d71565b9050919050565b611daa81611d90565b82525050565b5f602082019050611dc35f830184611da1565b92915050565b611dd281611d90565b8114611ddc575f5ffd5b50565b5f81359050611ded81611dc9565b92915050565b5f5f60408385031215611e0957611e08611d0b565b5b5f611e1685828601611ddf565b9250506020611e2785828601611d32565b9150509250929050565b5f5f5f60608486031215611e4857611e47611d0b565b5b5f611e5586828701611ddf565b9350506020611e6686828701611ddf565b9250506040611e7786828701611d32565b9150509250925092565b5f5f5f60608486031215611e9857611e97611d0b565b5b5f611ea586828701611ddf565b9350506020611eb686828701611ddf565b9250506040611ec786828701611ddf565b9150509250925092565b611eda81611d13565b82525050565b5f602082019050611ef35f830184611ed1565b92915050565b5f60208284031215611f0e57611f0d611d0b565b5b5f611f1b84828501611ddf565b91505092915050565b5f606082019050611f375f830186611da1565b611f446020830185611da1565b611f516040830184611da1565b949350505050565b5f8115159050919050565b611f6d81611f59565b8114611f77575f5ffd5b50565b5f81359050611f8881611f64565b92915050565b5f5f60408385031215611fa457611fa3611d0b565b5b5f611fb185828601611ddf565b9250506020611fc285828601611f7a565b9150509250929050565b5f5ffd5b5f5ffd5b5f5ffd5b5f5f83601f840112611fed57611fec611fcc565b5b8235905067ffffffffffffffff81111561200a57612009611fd0565b5b60208301915083600182028301111561202657612025611fd4565b5b9250929050565b5f5f5f5f5f6080868803121561204657612045611d0b565b5b5f61205388828901611ddf565b955050602061206488828901611ddf565b945050604061207588828901611d32565b935050606086013567ffffffffffffffff81111561209657612095611d0f565b5b6120a288828901611fd8565b92509250509295509295909350565b5f5f604083850312156120c7576120c6611d0b565b5b5f6120d485828601611ddf565b92505060206120e585828601611ddf565b9150509250929050565b6120f881611f59565b82525050565b5f6020820190506121115f8301846120ef565b92915050565b7f4e487b71000000000000000000000000000000000000000000000000000000005f52602260045260245ffd5b5f600282049050600182168061215b57607f821691505b60208210810361216e5761216d612117565b5b50919050565b7f496e76616c696420746f6b656e000000000000000000000000000000000000005f82015250565b5f6121a8600d83611c7c565b91506121b382612174565b602082019050919050565b5f6020820190508181035f8301526121d58161219c565b9050919050565b7f417070726f766520746f206f776e6572000000000000000000000000000000005f82015250565b5f612210601083611c7c565b915061221b826121dc565b602082019050919050565b5f6020820190508181035f83015261223d81612204565b9050919050565b7f4e6f7420617574686f72697a65640000000000000000000000000000000000005f82015250565b5f612278600e83611c7c565b915061228382612244565b602082019050919050565b5f6020820190508181035f8301526122a58161226c565b9050919050565b7f4e6f74206f776e657200000000000000000000000000000000000000000000005f82015250565b5f6122e0600983611c7c565b91506122eb826122ac565b602082019050919050565b5f6020820190508181035f83015261230d816122d4565b9050919050565b7f5a65726f206164647265737300000000000000000000000000000000000000005f82015250565b5f612348600c83611c7c565b915061235382612314565b602082019050919050565b5f6020820190508181035f8301526123758161233c565b9050919050565b7f4e487b71000000000000000000000000000000000000000000000000000000005f52601160045260245ffd5b5f6123b382611d13565b91506123be83611d13565b92508282039050818111156123d6576123d561237c565b5b92915050565b5f6123e682611d13565b91506123f183611d13565b92508282019050808211156124095761240861237c565b5b92915050565b7f4e6f7420666163746f72790000000000000000000000000000000000000000005f82015250565b5f612443600b83611c7c565b915061244e8261240f565b602082019050919050565b5f6020820190508181035f83015261247081612437565b9050919050565b7f417070726f766520746f2063616c6c65720000000000000000000000000000005f82015250565b5f6124ab601183611c7c565b91506124b682612477565b602082019050919050565b5f6020820190508181035f8301526124d88161249f565b9050919050565b5f815190506124ed81611d1c565b92915050565b5f6020828403121561250857612507611d0b565b5b5f612515848285016124df565b91505092915050565b5f5ffd5b7f4e487b71000000000000000000000000000000000000000000000000000000005f52604160045260245ffd5b61255882611c9a565b810181811067ffffffffffffffff8211171561257757612576612522565b5b80604052505050565b5f612589611d02565b9050612595828261254f565b919050565b5f67ffffffffffffffff8211156125b4576125b3612522565b5b6125bd82611c9a565b9050602081019050919050565b5f6125dc6125d78461259a565b612580565b9050828152602081018484840111156125f8576125f761251e565b5b612603848285611c8c565b509392505050565b5f82601f83011261261f5761261e611fcc565b5b815161262f8482602086016125ca565b91505092915050565b5f6020828403121561264d5761264c611d0b565b5b5f82015167ffffffffffffffff81111561266a57612669611d0f565b5b6126768482850161260b565b91505092915050565b5f60ff82169050919050565b6126948161267f565b811461269e575f5ffd5b50565b5f815190506126af8161268b565b92915050565b5f602082840312156126ca576126c9611d0b565b5b5f6126d7848285016126a1565b91505092915050565b5f81905092915050565b7f7b226e616d65223a225661756c7420666f7220000000000000000000000000005f82015250565b5f61271e6013836126e0565b9150612729826126ea565b601382019050919050565b5f61273e82611c72565b61274881856126e0565b9350612758818560208601611c8c565b80840191505092915050565b7f222c226465736372697074696f6e223a225661756c7420666f722000000000005f82015250565b5f612798601b836126e0565b91506127a382612764565b601b82019050919050565b7f206465706f736974732e222c22696d616765223a22646174613a696d6167652f5f8201527f7376672b786d6c3b6261736536342c0000000000000000000000000000000000602082015250565b5f612808602f836126e0565b9150612813826127ae565b602f82019050919050565b7f222c2261747472696275746573223a5b000000000000000000000000000000005f82015250565b5f6128526010836126e0565b915061285d8261281e565b601082019050919050565b7f7b2274726169745f74797065223a22546f6b656e222c2276616c7565223a22005f82015250565b5f61289c601f836126e0565b91506128a782612868565b601f82019050919050565b7f227d2c00000000000000000000000000000000000000000000000000000000005f82015250565b5f6128e66003836126e0565b91506128f1826128b2565b600382019050919050565b7f7b2274726169745f74797065223a22546f74616c204465706f73697473222c225f8201527f76616c7565223a22000000000000000000000000000000000000000000000000602082015250565b5f6129566028836126e0565b9150612961826128fc565b602882019050919050565b7f227d0000000000000000000000000000000000000000000000000000000000005f82015250565b5f6129a06002836126e0565b91506129ab8261296c565b600282019050919050565b7f5d7d0000000000000000000000000000000000000000000000000000000000005f82015250565b5f6129ea6002836126e0565b91506129f5826129b6565b600282019050919050565b5f612a0a82612712565b9150612a168288612734565b9150612a218261278c565b9150612a2d8287612734565b9150612a38826127fc565b9150612a448286612734565b9150612a4f82612846565b9150612a5a82612890565b9150612a668285612734565b9150612a71826128da565b9150612a7c8261294a565b9150612a888284612734565b9150612a9382612994565b9150612a9e826129de565b91508190509695505050505050565b7f646174613a6170706c69636174696f6e2f6a736f6e3b6261736536342c0000005f82015250565b5f612ae1601d836126e0565b9150612aec82612aad565b601d82019050919050565b5f612b0182612ad5565b9150612b0d8284612734565b915081905092915050565b7f3c73766720786d6c6e733d27687474703a2f2f7777772e77332e6f72672f32305f8201527f30302f737667272077696474683d2735303027206865696768743d273530302760208201527f207374796c653d276261636b67726f756e643a233062313032303b273e000000604082015250565b5f612b98605d836126e0565b9150612ba382612b18565b605d82019050919050565b7f3c7374796c653e2e7469746c657b666f6e743a20626f6c6420323070782073615f8201527f6e732d73657269663b2066696c6c3a20236666666666663b7d202e6c6162656c60208201527f7b666f6e743a20313470782073616e732d73657269663b2066696c6c3a20236160408201527f61616161613b7d202e76616c75657b666f6e743a2031347078206d6f6e6f737060608201527f6163653b2066696c6c3a20236666666666663b7d3c2f7374796c653e00000000608082015250565b5f612c7a609c836126e0565b9150612c8582612bae565b609c82019050919050565b7f3c7465787420783d2732302720793d2734302720636c6173733d277469746c655f8201527f273e5661756c74204e46543c2f746578743e0000000000000000000000000000602082015250565b5f612cea6032836126e0565b9150612cf582612c90565b603282019050919050565b7f3c7465787420783d2732302720793d2738302720636c6173733d276c6162656c5f8201527f273e546f6b656e3a3c2f746578743e0000000000000000000000000000000000602082015250565b5f612d5a602f836126e0565b9150612d6582612d00565b602f82019050919050565b7f3c7465787420783d273132302720793d2738302720636c6173733d2776616c755f8201527f65273e0000000000000000000000000000000000000000000000000000000000602082015250565b5f612dca6023836126e0565b9150612dd582612d70565b602382019050919050565b7f20280000000000000000000000000000000000000000000000000000000000005f82015250565b5f612e146002836126e0565b9150612e1f82612de0565b600282019050919050565b7f293c2f746578743e0000000000000000000000000000000000000000000000005f82015250565b5f612e5e6008836126e0565b9150612e6982612e2a565b600882019050919050565b7f3c7465787420783d2732302720793d273131302720636c6173733d276c6162655f8201527f6c273e446563696d616c733a3c2f746578743e00000000000000000000000000602082015250565b5f612ece6033836126e0565b9150612ed982612e74565b603382019050919050565b7f3c7465787420783d273132302720793d273131302720636c6173733d2776616c5f8201527f7565273e00000000000000000000000000000000000000000000000000000000602082015250565b5f612f3e6024836126e0565b9150612f4982612ee4565b602482019050919050565b7f3c2f746578743e000000000000000000000000000000000000000000000000005f82015250565b5f612f886007836126e0565b9150612f9382612f54565b600782019050919050565b7f3c7465787420783d2732302720793d273134302720636c6173733d276c6162655f8201527f6c273e546f6b656e20416464726573733a3c2f746578743e0000000000000000602082015250565b5f612ff86038836126e0565b915061300382612f9e565b603882019050919050565b7f3c7465787420783d2732302720793d273136302720636c6173733d2776616c755f8201527f65273e0000000000000000000000000000000000000000000000000000000000602082015250565b5f6130686023836126e0565b91506130738261300e565b602382019050919050565b7f3c7465787420783d2732302720793d273139302720636c6173733d276c6162655f8201527f6c273e5661756c7420416464726573733a3c2f746578743e0000000000000000602082015250565b5f6130d86038836126e0565b91506130e38261307e565b603882019050919050565b7f3c7465787420783d2732302720793d273231302720636c6173733d2776616c755f8201527f65273e0000000000000000000000000000000000000000000000000000000000602082015250565b5f6131486023836126e0565b9150613153826130ee565b602382019050919050565b7f3c7465787420783d2732302720793d273234302720636c6173733d276c6162655f8201527f6c273e43726561746f723a3c2f746578743e0000000000000000000000000000602082015250565b5f6131b86032836126e0565b91506131c38261315e565b603282019050919050565b7f3c7465787420783d2732302720793d273236302720636c6173733d2776616c755f8201527f65273e0000000000000000000000000000000000000000000000000000000000602082015250565b5f6132286023836126e0565b9150613233826131ce565b602382019050919050565b7f3c7465787420783d2732302720793d273239302720636c6173733d276c6162655f8201527f6c273e546f74616c204465706f736974733a3c2f746578743e00000000000000602082015250565b5f6132986039836126e0565b91506132a38261323e565b603982019050919050565b7f3c7465787420783d273230302720793d273239302720636c6173733d2776616c5f8201527f7565273e00000000000000000000000000000000000000000000000000000000602082015250565b5f6133086024836126e0565b9150613313826132ae565b602482019050919050565b7f3c2f7376673e00000000000000000000000000000000000000000000000000005f82015250565b5f6133526006836126e0565b915061335d8261331e565b600682019050919050565b5f61337282612b8c565b915061337d82612c6e565b915061338882612cde565b915061339382612d4e565b915061339e82612dbe565b91506133aa828a612734565b91506133b582612e08565b91506133c18289612734565b91506133cc82612e52565b91506133d782612ec2565b91506133e282612f32565b91506133ee8288612734565b91506133f982612f7c565b915061340482612fec565b915061340f8261305c565b915061341b8287612734565b915061342682612f7c565b9150613431826130cc565b915061343c8261313c565b91506134488286612734565b915061345382612f7c565b915061345e826131ac565b91506134698261321c565b91506134758285612734565b915061348082612f7c565b915061348b8261328c565b9150613496826132fc565b91506134a28284612734565b91506134ad82612f7c565b91506134b882613346565b915081905098975050505050505050565b7f4e487b71000000000000000000000000000000000000000000000000000000005f52601260045260245ffd5b5f61350082611d13565b915061350b83611d13565b92508261351b5761351a6134c9565b5b828204905092915050565b5f61353082611d13565b915061353b83611d13565b925082820261354981611d13565b915082820484148315176135605761355f61237c565b5b5092915050565b5f61357182611d13565b91507fffffffffffffffffffffffffffffffffffffffffffffffffffffffffffffffff82036135a3576135a261237c565b5b600182019050919050565b5f6135b882611d13565b91506135c383611d13565b9250826135d3576135d26134c9565b5b828206905092915050565b7f4e487b71000000000000000000000000000000000000000000000000000000005f52603260045260245ffd5b5f8160601b9050919050565b5f6136218261360b565b9050919050565b5f61363282613617565b9050919050565b61364a61364582611d90565b613628565b82525050565b5f61365b8284613639565b6014820191508190509291505056fe4142434445464748494a4b4c4d4e4f505152535455565758595a6162636465666768696a6b6c6d6e6f707172737475767778797a303132333435363738392b2fa26469706673582212204534c88af87abd6fb40ad8fc195bf8b4ff8465d93fb9fecf53809f48e8776f4964736f6c63430008210033","linkReferences":{}},"methodIdentifiers":{"addLiquidity(address,uint256)":"56688700","createVaultAndDeposit(address,uint256)":"cd4419a4","deterministicVaultAddress(address)":"c0a40fb2","vaultForToken(address)":"fdd16e57","vaultNFT()":"84dea1a1"},"id":22}