{"abi":[{"type":"constructor","inputs":[{"name":"_nft","type":"address","internalType":"address"}],"stateMutability":"nonpayable"},{"type":"function","name":"DAI","inputs":[],"outputs":[{"name":"","type":"address","internalType":"address"}],"stateMutability":"view"},{"type":"function","name":"USDC","inputs":[],"outputs":[{"name":"","type":"address","internalType":"address"}],"stateMutability":"view"},{"type":"function","name":"USDT","inputs":[],"outputs":[{"name":"","type":"address","internalType":"address"}],"stateMutability":"view"},{"type":"function","name":"createVault","inputs":[{"name":"token","type":"address","internalType":"address"}],"outputs":[{"name":"","type":"address","internalType":"address"}],"stateMutability":"nonpayable"},{"type":"function","name":"isWhitelisted","inputs":[{"name":"token","type":"address","internalType":"address"}],"outputs":[{"name":"","type":"bool","internalType":"bool"}],"stateMutability":"pure"},{"type":"function","name":"nft","inputs":[],"outputs":[{"name":"","type":"address","internalType":"contract VaultNFT"}],"stateMutability":"view"}],"bytecode":{"object":"0x608060405234801561000f575f5ffd5b50604051610dff380380610dff833981810160405281019061003191906100d4565b805f5f6101000a81548173ffffffffffffffffffffffffffffffffffffffff021916908373ffffffffffffffffffffffffffffffffffffffff160217905550506100ff565b5f5ffd5b5f73ffffffffffffffffffffffffffffffffffffffff82169050919050565b5f6100a38261007a565b9050919050565b6100b381610099565b81146100bd575f5ffd5b50565b5f815190506100ce816100aa565b92915050565b5f602082840312156100e9576100e8610076565b5b5f6100f6848285016100c0565b91505092915050565b610cf38061010c5f395ff3fe608060405234801561000f575f5ffd5b5060043610610060575f3560e01c80633af32abf1461006457806347ccca021461009457806389a30271146100b2578063b4bd6f46146100d0578063c54e44eb14610100578063e0bab4c41461011e575b5f5ffd5b61007e60048036038101906100799190610436565b61013c565b60405161008b919061047b565b60405180910390f35b61009c61021b565b6040516100a991906104ef565b60405180910390f35b6100ba61023f565b6040516100c79190610517565b60405180910390f35b6100ea60048036038101906100e59190610436565b610257565b6040516100f79190610517565b60405180910390f35b61010861039b565b6040516101159190610517565b60405180910390f35b6101266103b3565b6040516101339190610517565b60405180910390f35b5f73a0b86991c6218b36c1d19d4a2e9eb0ce3606eb4873ffffffffffffffffffffffffffffffffffffffff168273ffffffffffffffffffffffffffffffffffffffff1614806101ca575073dac17f958d2ee523a2206206994597c13d831ec773ffffffffffffffffffffffffffffffffffffffff168273ffffffffffffffffffffffffffffffffffffffff16145b806102145750736b175474e89094c44da98b954eedeac495271d0f73ffffffffffffffffffffffffffffffffffffffff168273ffffffffffffffffffffffffffffffffffffffff16145b9050919050565b5f5f9054906101000a900473ffffffffffffffffffffffffffffffffffffffff1681565b73a0b86991c6218b36c1d19d4a2e9eb0ce3606eb4881565b5f6102618261013c565b6102a0576040517f08c379a00000000000000000000000000000000000000000000000000000000081526004016102979061058a565b60405180910390fd5b5f8273ffffffffffffffffffffffffffffffffffffffff165f1b90505f81846040516102cb906103cb565b6102d59190610517565b8190604051809103905ff59050801580156102f2573d5f5f3e3d5ffd5b5090505f5f9054906101000a900473ffffffffffffffffffffffffffffffffffffffff1673ffffffffffffffffffffffffffffffffffffffff1663ee1fe2ad33836040518363ffffffff1660e01b81526004016103509291906105a8565b6020604051808303815f875af115801561036c573d5f5f3e3d5ffd5b505050506040513d601f19601f820116820180604052508101906103909190610602565b508092505050919050565b73dac17f958d2ee523a2206206994597c13d831ec781565b736b175474e89094c44da98b954eedeac495271d0f81565b6106908061062e83390190565b5f5ffd5b5f73ffffffffffffffffffffffffffffffffffffffff82169050919050565b5f610405826103dc565b9050919050565b610415816103fb565b811461041f575f5ffd5b50565b5f813590506104308161040c565b92915050565b5f6020828403121561044b5761044a6103d8565b5b5f61045884828501610422565b91505092915050565b5f8115159050919050565b61047581610461565b82525050565b5f60208201905061048e5f83018461046c565b92915050565b5f819050919050565b5f6104b76104b26104ad846103dc565b610494565b6103dc565b9050919050565b5f6104c88261049d565b9050919050565b5f6104d9826104be565b9050919050565b6104e9816104cf565b82525050565b5f6020820190506105025f8301846104e0565b92915050565b610511816103fb565b82525050565b5f60208201905061052a5f830184610508565b92915050565b5f82825260208201905092915050565b7f546f6b656e206e6f7420737570706f72746564000000000000000000000000005f82015250565b5f610574601383610530565b915061057f82610540565b602082019050919050565b5f6020820190508181035f8301526105a181610568565b9050919050565b5f6040820190506105bb5f830185610508565b6105c86020830184610508565b9392505050565b5f819050919050565b6105e1816105cf565b81146105eb575f5ffd5b50565b5f815190506105fc816105d8565b92915050565b5f60208284031215610617576106166103d8565b5b5f610624848285016105ee565b9150509291505056fe60a060405234801561000f575f5ffd5b50604051610690380380610690833981810160405281019061003191906100c9565b8073ffffffffffffffffffffffffffffffffffffffff1660808173ffffffffffffffffffffffffffffffffffffffff1681525050506100f4565b5f5ffd5b5f73ffffffffffffffffffffffffffffffffffffffff82169050919050565b5f6100988261006f565b9050919050565b6100a88161008e565b81146100b2575f5ffd5b50565b5f815190506100c38161009f565b92915050565b5f602082840312156100de576100dd61006b565b5b5f6100eb848285016100b5565b91505092915050565b6080516105776101195f395f818160c70152818161016401526101d001526105775ff3fe608060405234801561000f575f5ffd5b506004361061004a575f3560e01c806312065fe01461004e57806382bfefc81461006c578063b6b55f251461008a578063ff50abdc146100a6575b5f5ffd5b6100566100c4565b6040516100639190610360565b60405180910390f35b610074610162565b60405161008191906103b8565b60405180910390f35b6100a4600480360381019061009f91906103ff565b610186565b005b6100ae61027d565b6040516100bb9190610360565b60405180910390f35b5f7f000000000000000000000000000000000000000000000000000000000000000073ffffffffffffffffffffffffffffffffffffffff166370a08231306040518263ffffffff1660e01b815260040161011e91906103b8565b602060405180830381865afa158015610139573d5f5f3e3d5ffd5b505050506040513d601f19601f8201168201806040525081019061015d919061043e565b905090565b7f000000000000000000000000000000000000000000000000000000000000000081565b5f81116101c8576040517f08c379a00000000000000000000000000000000000000000000000000000000081526004016101bf906104c3565b60405180910390fd5b6102153330837f000000000000000000000000000000000000000000000000000000000000000073ffffffffffffffffffffffffffffffffffffffff16610282909392919063ffffffff16565b805f5f828254610225919061050e565b925050819055503373ffffffffffffffffffffffffffffffffffffffff167fe1fffcc4923d04b559f4d29a8bfc6cda04eb5b0d3c460751c2402c5c5cc9109c826040516102729190610360565b60405180910390a250565b5f5481565b6102908484848460016102d7565b6102d157836040517f5274afe70000000000000000000000000000000000000000000000000000000081526004016102c891906103b8565b60405180910390fd5b50505050565b5f5f6323b872dd60e01b9050604051815f525f1960601c87166004525f1960601c86166024528460445260205f60645f5f8c5af1925060015f51148316610335578383151615610329573d5f823e3d81fd5b5f883b113d1516831692505b806040525f606052505095945050505050565b5f819050919050565b61035a81610348565b82525050565b5f6020820190506103735f830184610351565b92915050565b5f73ffffffffffffffffffffffffffffffffffffffff82169050919050565b5f6103a282610379565b9050919050565b6103b281610398565b82525050565b5f6020820190506103cb5f8301846103a9565b92915050565b5f5ffd5b6103de81610348565b81146103e8575f5ffd5b50565b5f813590506103f9816103d5565b92915050565b5f60208284031215610414576104136103d1565b5b5f610421848285016103eb565b91505092915050565b5f81519050610438816103d5565b92915050565b5f60208284031215610453576104526103d1565b5b5f6104608482850161042a565b91505092915050565b5f82825260208201905092915050565b7f416d6f756e74206d7573742062652067726561746572207468616e20300000005f82015250565b5f6104ad601d83610469565b91506104b882610479565b602082019050919050565b5f6020820190508181035f8301526104da816104a1565b9050919050565b7f4e487b71000000000000000000000000000000000000000000000000000000005f52601160045260245ffd5b5f61051882610348565b915061052383610348565b925082820190508082111561053b5761053a6104e1565b5b9291505056fea2646970667358221220979314c1129644504d4102836e3526fef10228e8c39a5f876b2de3404d67a7c764736f6c63430008210033a26469706673582212201a4578043f14395c3204200e2011ec366c354b5f12ac385550dd18e525b6864964736f6c63430008210033","linkReferences":{}},"methodIdentifiers":{"DAI()":"e0bab4c4","USDC()":"89a30271","USDT()":"c54e44eb","createVault(address)":"b4bd6f46","isWhitelisted(address)":"3af32abf","nft()":"47ccca02"},"id":41}