{"abi":[{"type":"constructor","inputs":[],"stateMutability":"nonpayable"},{"type":"function","name":"approve","inputs":[{"name":"to","type":"address","internalType":"address"},{"name":"tokenId","type":"uint256","internalType":"uint256"}],"outputs":[],"stateMutability":"nonpayable"},{"type":"function","name":"balanceOf","inputs":[{"name":"owner","type":"address","internalType":"address"}],"outputs":[{"name":"","type":"uint256","internalType":"uint256"}],"stateMutability":"view"},{"type":"function","name":"getApproved","inputs":[{"name":"tokenId","type":"uint256","internalType":"uint256"}],"outputs":[{"name":"","type":"address","internalType":"address"}],"stateMutability":"view"},{"type":"function","name":"isApprovedForAll","inputs":[{"name":"owner","type":"address","internalType":"address"},{"name":"operator","type":"address","internalType":"address"}],"outputs":[{"name":"","type":"bool","internalType":"bool"}],"stateMutability":"view"},{"type":"function","name":"mint","inputs":[{"name":"to","type":"address","internalType":"address"},{"name":"vaultAddress","type":"address","internalType":"address"}],"outputs":[{"name":"","type":"uint256","internalType":"uint256"}],"stateMutability":"nonpayable"},{"type":"function","name":"name","inputs":[],"outputs":[{"name":"","type":"string","internalType":"string"}],"stateMutability":"view"},{"type":"function","name":"ownerOf","inputs":[{"name":"tokenId","type":"uint256","internalType":"uint256"}],"outputs":[{"name":"","type":"address","internalType":"address"}],"stateMutability":"view"},{"type":"function","name":"safeTransferFrom","inputs":[{"name":"from","type":"address","internalType":"address"},{"name":"to","type":"address","internalType":"address"},{"name":"tokenId","type":"uint256","internalType":"uint256"}],"outputs":[],"stateMutability":"nonpayable"},{"type":"function","name":"safeTransferFrom","inputs":[{"name":"from","type":"address","internalType":"address"},{"name":"to","type":"address","internalType":"address"},{"name":"tokenId","type":"uint256","internalType":"uint256"},{"name":"data","type":"bytes","internalType":"bytes"}],"outputs":[],"stateMutability":"nonpayable"},{"type":"function","name":"setApprovalForAll","inputs":[{"name":"operator","type":"address","internalType":"address"},{"name":"approved","type":"bool","internalType":"bool"}],"outputs":[],"stateMutability":"nonpayable"},{"type":"function","name":"supportsInterface","inputs":[{"name":"interfaceId","type":"bytes4","internalType":"bytes4"}],"outputs":[{"name":"","type":"bool","internalType":"bool"}],"stateMutability":"view"},{"type":"function","name":"symbol","inputs":[],"outputs":[{"name":"","type":"string","internalType":"string"}],"stateMutability":"view"},{"type":"function","name":"tokenCounter","inputs":[],"outputs":[{"name":"","type":"uint256","internalType":"uint256"}],"stateMutability":"view"},{"type":"function","name":"tokenIdToVault","inputs":[{"name":"","type":"uint256","internalType":"uint256"}],"outputs":[{"name":"","type":"address","internalType":"address"}],"stateMutability":"view"},{"type":"function","name":"tokenURI","inputs":[{"name":"tokenId","type":"uint256","internalType":"uint256"}],"outputs":[{"name":"","type":"string","internalType":"string"}],"stateMutability":"view"},{"type":"function","name":"transferFrom","inputs":[{"name":"from","type":"address","internalType":"address"},{"name":"to","type":"address","internalType":"address"},{"name":"tokenId","type":"uint256","internalType":"uint256"}],"outputs":[],"stateMutability":"nonpayable"},{"type":"event","name":"Approval","inputs":[{"name":"owner","type":"address","indexed":true,"internalType":"address"},{"name":"approved","type":"address","indexed":true,"internalType":"address"},{"name":"tokenId","type":"uint256","indexed":true,"internalType":"uint256"}],"anonymous":false},{"type":"event","name":"ApprovalForAll","inputs":[{"name":"owner","type":"address","indexed":true,"internalType":"address"},{"name":"operator","type":"address","indexed":true,"internalType":"address"},{"name":"approved","type":"bool","indexed":false,"internalType":"bool"}],"anonymous":false},{"type":"event","name":"Transfer","inputs":[{"name":"from","type":"address","indexed":true,"internalType":"address"},{"name":"to","type":"address","indexed":true,"internalType":"address"},{"name":"tokenId","type":"uint256","indexed":true,"internalType":"uint256"}],"anonymous":false},{"type":"error","name":"ERC721IncorrectOwner","inputs":[{"name":"sender","type":"address","internalType":"address"},{"name":"tokenId","type":"uint256","internalType":"uint256"},{"name":"owner","type":"address","internalType":"address"}]},{"type":"error","name":"ERC721InsufficientApproval","inputs":[{"name":"operator","type":"address","internalType":"address"},{"name":"tokenId","type":"uint256","internalType":"uint256"}]},{"type":"error","name":"ERC721InvalidApprover","inputs":[{"name":"approver","type":"address","internalType":"address"}]},{"type":"error","name":"ERC721InvalidOperator","inputs":[{"name":"operator","type":"address","internalType":"address"}]},{"type":"error","name":"ERC721InvalidOwner","inputs":[{"name":"owner","type":"address","internalType":"address"}]},{"type":"error","name":"ERC721InvalidReceiver","inputs":[{"name":"receiver","type":"address","internalType":"address"}]},{"type":"error","name":"ERC721InvalidSender","inputs":[{"name":"sender","type":"address","internalType":"address"}]},{"type":"error","name":"ERC721NonexistentToken","inputs":[{"name":"tokenId","type":"uint256","internalType":"uint256"}]}],"bytecode":{"object":"0x608060405234801561000f575f5ffd5b506040518060400160405280600c81526020017f5661756c745265636569707400000000000000000000000000000000000000008152506040518060400160405280600381526020017f564c540000000000000000000000000000000000000000000000000000000000815250815f908161008a91906102f0565b50806001908161009a91906102f0565b5050506103bf565b5f81519050919050565b7f4e487b71000000000000000000000000000000000000000000000000000000005f52604160045260245ffd5b7f4e487b71000000000000000000000000000000000000000000000000000000005f52602260045260245ffd5b5f600282049050600182168061011d57607f821691505b6020821081036101305761012f6100d9565b5b50919050565b5f819050815f5260205f209050919050565b5f6020601f8301049050919050565b5f82821b905092915050565b5f600883026101927fffffffffffffffffffffffffffffffffffffffffffffffffffffffffffffffff82610157565b61019c8683610157565b95508019841693508086168417925050509392505050565b5f819050919050565b5f819050919050565b5f6101e06101db6101d6846101b4565b6101bd565b6101b4565b9050919050565b5f819050919050565b6101f9836101c6565b61020d610205826101e7565b848454610163565b825550505050565b5f5f905090565b610224610215565b61022f8184846101f0565b505050565b5f5b828110156102555761024a5f82840161021c565b600181019050610236565b505050565b601f8211156102a857828211156102a75761027481610136565b61027d83610148565b61028685610148565b6020861015610293575f90505b8083016102a282840382610234565b505050505b5b505050565b5f82821c905092915050565b5f6102c85f19846008026102ad565b1980831691505092915050565b5f6102e083836102b9565b9150826002028217905092915050565b6102f9826100a2565b67ffffffffffffffff811115610312576103116100ac565b5b61031c8254610106565b61032782828561025a565b5f60209050601f831160018114610358575f8415610346578287015190505b61035085826102d5565b8655506103b7565b601f19841661036686610136565b5f5b8281101561038d57848901518255600182019150602085019450602081019050610368565b868310156103aa57848901516103a6601f8916826102b9565b8355505b6001600288020188555050505b505050505050565b6127d5806103cc5f395ff3fe608060405234801561000f575f5ffd5b50600436106100fe575f3560e01c806370a0823111610095578063c87b56dd11610064578063c87b56dd146102ba578063d082e381146102ea578063e985e9c514610308578063ee1fe2ad14610338576100fe565b806370a082311461023457806395d89b4114610264578063a22cb46514610282578063b88d4fde1461029e576100fe565b806316ffc423116100d157806316ffc4231461019c57806323b872dd146101cc57806342842e0e146101e85780636352211e14610204576100fe565b806301ffc9a71461010257806306fdde0314610132578063081812fc14610150578063095ea7b314610180575b5f5ffd5b61011c60048036038101906101179190611a29565b610368565b6040516101299190611a6e565b60405180910390f35b61013a610449565b6040516101479190611af7565b60405180910390f35b61016a60048036038101906101659190611b4a565b6104d8565b6040516101779190611bb4565b60405180910390f35b61019a60048036038101906101959190611bf7565b6104f3565b005b6101b660048036038101906101b19190611b4a565b610509565b6040516101c39190611bb4565b60405180910390f35b6101e660048036038101906101e19190611c35565b610539565b005b61020260048036038101906101fd9190611c35565b610638565b005b61021e60048036038101906102199190611b4a565b610657565b60405161022b9190611bb4565b60405180910390f35b61024e60048036038101906102499190611c85565b610668565b60405161025b9190611cbf565b60405180910390f35b61026c61071e565b6040516102799190611af7565b60405180910390f35b61029c60048036038101906102979190611d02565b6107ae565b005b6102b860048036038101906102b39190611e6c565b6107c4565b005b6102d460048036038101906102cf9190611b4a565b6107e9565b6040516102e19190611af7565b60405180910390f35b6102f2610955565b6040516102ff9190611cbf565b60405180910390f35b610322600480360381019061031d9190611eec565b61095b565b60405161032f9190611a6e565b60405180910390f35b610352600480360381019061034d9190611eec565b6109e9565b60405161035f9190611cbf565b60405180910390f35b5f7f80ac58cd000000000000000000000000000000000000000000000000000000007bffffffffffffffffffffffffffffffffffffffffffffffffffffffff1916827bffffffffffffffffffffffffffffffffffffffffffffffffffffffff1916148061043257507f5b5e139f000000000000000000000000000000000000000000000000000000007bffffffffffffffffffffffffffffffffffffffffffffffffffffffff1916827bffffffffffffffffffffffffffffffffffffffffffffffffffffffff1916145b80610442575061044182610a6a565b5b9050919050565b60605f805461045790611f57565b80601f016020809104026020016040519081016040528092919081815260200182805461048390611f57565b80156104ce5780601f106104a5576101008083540402835291602001916104ce565b820191905f5260205f20905b8154815290600101906020018083116104b157829003601f168201915b5050505050905090565b5f6104e282610ad3565b506104ec82610b59565b9050919050565b6105058282610500610b92565b610b99565b5050565b6007602052805f5260405f205f915054906101000a900473ffffffffffffffffffffffffffffffffffffffff1681565b5f73ffffffffffffffffffffffffffffffffffffffff168273ffffffffffffffffffffffffffffffffffffffff16036105a9575f6040517f64a0ae920000000000000000000000000000000000000000000000000000000081526004016105a09190611bb4565b60405180910390fd5b5f6105bc83836105b7610b92565b610bab565b90508373ffffffffffffffffffffffffffffffffffffffff168173ffffffffffffffffffffffffffffffffffffffff1614610632578382826040517f64283d7b00000000000000000000000000000000000000000000000000000000815260040161062993929190611f87565b60405180910390fd5b50505050565b61065283838360405180602001604052805f8152506107c4565b505050565b5f61066182610ad3565b9050919050565b5f5f73ffffffffffffffffffffffffffffffffffffffff168273ffffffffffffffffffffffffffffffffffffffff16036106d9575f6040517f89c62b640000000000000000000000000000000000000000000000000000000081526004016106d09190611bb4565b60405180910390fd5b60035f8373ffffffffffffffffffffffffffffffffffffffff1673ffffffffffffffffffffffffffffffffffffffff1681526020019081526020015f20549050919050565b60606001805461072d90611f57565b80601f016020809104026020016040519081016040528092919081815260200182805461075990611f57565b80156107a45780601f1061077b576101008083540402835291602001916107a4565b820191905f5260205f20905b81548152906001019060200180831161078757829003601f168201915b5050505050905090565b6107c06107b9610b92565b8383610db6565b5050565b6107cf848484610539565b6107e36107da610b92565b85858585610f8f565b50505050565b60605f73ffffffffffffffffffffffffffffffffffffffff1661080b83610657565b73ffffffffffffffffffffffffffffffffffffffff1603610861576040517f08c379a000000000000000000000000000000000000000000000000000000000815260040161085890612006565b60405180910390fd5b5f60075f8481526020019081526020015f205f9054906101000a900473ffffffffffffffffffffffffffffffffffffffff1690505f8190505f8173ffffffffffffffffffffffffffffffffffffffff166312065fe06040518163ffffffff1660e01b8152600401602060405180830381865afa1580156108e3573d5f5f3e3d5ffd5b505050506040513d601f19601f820116820180604052508101906109079190612038565b90505f6109138261113b565b90505f61091f8261116c565b905061092a8161119d565b60405160200161093a91906120e7565b60405160208183030381529060405295505050505050919050565b60065481565b5f60055f8473ffffffffffffffffffffffffffffffffffffffff1673ffffffffffffffffffffffffffffffffffffffff1681526020019081526020015f205f8373ffffffffffffffffffffffffffffffffffffffff1673ffffffffffffffffffffffffffffffffffffffff1681526020019081526020015f205f9054906101000a900460ff16905092915050565b5f5f60065490506109fa84826111b0565b8260075f8381526020019081526020015f205f6101000a81548173ffffffffffffffffffffffffffffffffffffffff021916908373ffffffffffffffffffffffffffffffffffffffff16021790555060065f815480929190610a5b90612135565b91905055508091505092915050565b5f7f01ffc9a7000000000000000000000000000000000000000000000000000000007bffffffffffffffffffffffffffffffffffffffffffffffffffffffff1916827bffffffffffffffffffffffffffffffffffffffffffffffffffffffff1916149050919050565b5f5f610ade836112a3565b90505f73ffffffffffffffffffffffffffffffffffffffff168173ffffffffffffffffffffffffffffffffffffffff1603610b5057826040517f7e273289000000000000000000000000000000000000000000000000000000008152600401610b479190611cbf565b60405180910390fd5b80915050919050565b5f60045f8381526020019081526020015f205f9054906101000a900473ffffffffffffffffffffffffffffffffffffffff169050919050565b5f33905090565b610ba683838360016112dc565b505050565b5f5f610bb6846112a3565b90505f73ffffffffffffffffffffffffffffffffffffffff168373ffffffffffffffffffffffffffffffffffffffff1614610bf757610bf681848661149b565b5b5f73ffffffffffffffffffffffffffffffffffffffff168173ffffffffffffffffffffffffffffffffffffffff1614610c8257610c365f855f5f6112dc565b600160035f8373ffffffffffffffffffffffffffffffffffffffff1673ffffffffffffffffffffffffffffffffffffffff1681526020019081526020015f205f82825403925050819055505b5f73ffffffffffffffffffffffffffffffffffffffff168573ffffffffffffffffffffffffffffffffffffffff1614610d0157600160035f8773ffffffffffffffffffffffffffffffffffffffff1673ffffffffffffffffffffffffffffffffffffffff1681526020019081526020015f205f82825401925050819055505b8460025f8681526020019081526020015f205f6101000a81548173ffffffffffffffffffffffffffffffffffffffff021916908373ffffffffffffffffffffffffffffffffffffffff160217905550838573ffffffffffffffffffffffffffffffffffffffff168273ffffffffffffffffffffffffffffffffffffffff167fddf252ad1be2c89b69c2b068fc378daa952ba7f163c4a11628f55a4df523b3ef60405160405180910390a4809150509392505050565b5f73ffffffffffffffffffffffffffffffffffffffff168373ffffffffffffffffffffffffffffffffffffffff1603610e26575f6040517fa9fbf51f000000000000000000000000000000000000000000000000000000008152600401610e1d9190611bb4565b60405180910390fd5b5f73ffffffffffffffffffffffffffffffffffffffff168273ffffffffffffffffffffffffffffffffffffffff1603610e9657816040517f5b08ba18000000000000000000000000000000000000000000000000000000008152600401610e8d9190611bb4565b60405180910390fd5b8060055f8573ffffffffffffffffffffffffffffffffffffffff1673ffffffffffffffffffffffffffffffffffffffff1681526020019081526020015f205f8473ffffffffffffffffffffffffffffffffffffffff1673ffffffffffffffffffffffffffffffffffffffff1681526020019081526020015f205f6101000a81548160ff0219169083151502179055508173ffffffffffffffffffffffffffffffffffffffff168373ffffffffffffffffffffffffffffffffffffffff167f17307eab39ab6107e8899845ad3d59bd9653f200f220920489ca2b5937696c3183604051610f829190611a6e565b60405180910390a3505050565b5f8373ffffffffffffffffffffffffffffffffffffffff163b1115611134578273ffffffffffffffffffffffffffffffffffffffff1663150b7a02868685856040518563ffffffff1660e01b8152600401610fed94939291906121ce565b6020604051808303815f875af192505050801561102857506040513d601f19601f82011682018060405250810190611025919061222c565b60015b6110a9573d805f8114611056576040519150601f19603f3d011682016040523d82523d5f602084013e61105b565b606091505b505f8151036110a157836040517f64a0ae920000000000000000000000000000000000000000000000000000000081526004016110989190611bb4565b60405180910390fd5b805160208201fd5b63150b7a0260e01b7bffffffffffffffffffffffffffffffffffffffffffffffffffffffff1916817bffffffffffffffffffffffffffffffffffffffffffffffffffffffff19161461113257836040517f64a0ae920000000000000000000000000000000000000000000000000000000081526004016111299190611bb4565b60405180910390fd5b505b5050505050565b60606111468261155e565b604051602001611156919061251d565b6040516020818303038152906040529050919050565b60606111778261119d565b604051602001611187919061267b565b6040516020818303038152906040529050919050565b60606111a9825f611628565b9050919050565b5f73ffffffffffffffffffffffffffffffffffffffff168273ffffffffffffffffffffffffffffffffffffffff1603611220575f6040517f64a0ae920000000000000000000000000000000000000000000000000000000081526004016112179190611bb4565b60405180910390fd5b5f61122c83835f610bab565b90505f73ffffffffffffffffffffffffffffffffffffffff168173ffffffffffffffffffffffffffffffffffffffff161461129e575f6040517f73c6ac6e0000000000000000000000000000000000000000000000000000000081526004016112959190611bb4565b60405180910390fd5b505050565b5f60025f8381526020019081526020015f205f9054906101000a900473ffffffffffffffffffffffffffffffffffffffff169050919050565b808061131457505f73ffffffffffffffffffffffffffffffffffffffff168273ffffffffffffffffffffffffffffffffffffffff1614155b15611446575f61132384610ad3565b90505f73ffffffffffffffffffffffffffffffffffffffff168373ffffffffffffffffffffffffffffffffffffffff161415801561138d57508273ffffffffffffffffffffffffffffffffffffffff168173ffffffffffffffffffffffffffffffffffffffff1614155b80156113a0575061139e818461095b565b155b156113e257826040517fa9fbf51f0000000000000000000000000000000000000000000000000000000081526004016113d99190611bb4565b60405180910390fd5b811561144457838573ffffffffffffffffffffffffffffffffffffffff168273ffffffffffffffffffffffffffffffffffffffff167f8c5be1e5ebec7d5bd14f71427d1e84f3dd0314c0f7b2291e5b200ac8c7c3b92560405160405180910390a45b505b8360045f8581526020019081526020015f205f6101000a81548173ffffffffffffffffffffffffffffffffffffffff021916908373ffffffffffffffffffffffffffffffffffffffff16021790555050505050565b6114a68383836117b2565b611559575f73ffffffffffffffffffffffffffffffffffffffff168373ffffffffffffffffffffffffffffffffffffffff160361151a57806040517f7e2732890000000000000000000000000000000000000000000000000000000081526004016115119190611cbf565b60405180910390fd5b81816040517f177e802f0000000000000000000000000000000000000000000000000000000081526004016115509291906126a7565b60405180910390fd5b505050565b60605f600161156c84611872565b0190505f8167ffffffffffffffff81111561158a57611589611d48565b5b6040519080825280601f01601f1916602001820160405280156115bc5781602001600182028036833780820191505090505b5090505f82602083010190505b60011561161d578080600190039150507f3031323334353637383961626364656600000000000000000000000000000000600a86061a8153600a8581611612576116116126ce565b5b0494505f85036115c9575b819350505050919050565b60605f8351036116485760405180602001604052805f81525090506117ac565b5f826116795760036002855161165e91906126fb565b611668919061272e565b6004611674919061275e565b6116a0565b600360028551600461168b919061275e565b61169591906126fb565b61169f919061272e565b5b905060405191507f4142434445464748494a4b4c4d4e4f505152535455565758595a616263646566601f5261067083027f6768696a6b6c6d6e6f707172737475767778797a303132333435363738392b2f18603f526020820181810185865187016020810180515f82525b8284101561175e576003840193508351603f8160121c16518753600187019650603f81600c1c16518753600187019650603f8160061c16518753600187019650603f81165187536001870196505061170b565b8082528861179d5760038a51066001811461178057600281146117935761179b565b603d6001880353603d600288035361179b565b603d60018803535b505b86885284604052505050505050505b92915050565b5f5f73ffffffffffffffffffffffffffffffffffffffff168373ffffffffffffffffffffffffffffffffffffffff161415801561186957508273ffffffffffffffffffffffffffffffffffffffff168473ffffffffffffffffffffffffffffffffffffffff16148061182a5750611829848461095b565b5b8061186857508273ffffffffffffffffffffffffffffffffffffffff1661185083610b59565b73ffffffffffffffffffffffffffffffffffffffff16145b5b90509392505050565b5f5f5f90507a184f03e93ff9f4daa797ed6e38ed64bf6a1f01000000000000000083106118ce577a184f03e93ff9f4daa797ed6e38ed64bf6a1f01000000000000000083816118c4576118c36126ce565b5b0492506040810190505b6d04ee2d6d415b85acef8100000000831061190b576d04ee2d6d415b85acef81000000008381611901576119006126ce565b5b0492506020810190505b662386f26fc10000831061193a57662386f26fc1000083816119305761192f6126ce565b5b0492506010810190505b6305f5e1008310611963576305f5e1008381611959576119586126ce565b5b0492506008810190505b612710831061198857612710838161197e5761197d6126ce565b5b0492506004810190505b606483106119ab57606483816119a1576119a06126ce565b5b0492506002810190505b600a83106119ba576001810190505b80915050919050565b5f604051905090565b5f5ffd5b5f5ffd5b5f7fffffffff0000000000000000000000000000000000000000000000000000000082169050919050565b611a08816119d4565b8114611a12575f5ffd5b50565b5f81359050611a23816119ff565b92915050565b5f60208284031215611a3e57611a3d6119cc565b5b5f611a4b84828501611a15565b91505092915050565b5f8115159050919050565b611a6881611a54565b82525050565b5f602082019050611a815f830184611a5f565b92915050565b5f81519050919050565b5f82825260208201905092915050565b8281835e5f83830152505050565b5f601f19601f8301169050919050565b5f611ac982611a87565b611ad38185611a91565b9350611ae3818560208601611aa1565b611aec81611aaf565b840191505092915050565b5f6020820190508181035f830152611b0f8184611abf565b905092915050565b5f819050919050565b611b2981611b17565b8114611b33575f5ffd5b50565b5f81359050611b4481611b20565b92915050565b5f60208284031215611b5f57611b5e6119cc565b5b5f611b6c84828501611b36565b91505092915050565b5f73ffffffffffffffffffffffffffffffffffffffff82169050919050565b5f611b9e82611b75565b9050919050565b611bae81611b94565b82525050565b5f602082019050611bc75f830184611ba5565b92915050565b611bd681611b94565b8114611be0575f5ffd5b50565b5f81359050611bf181611bcd565b92915050565b5f5f60408385031215611c0d57611c0c6119cc565b5b5f611c1a85828601611be3565b9250506020611c2b85828601611b36565b9150509250929050565b5f5f5f60608486031215611c4c57611c4b6119cc565b5b5f611c5986828701611be3565b9350506020611c6a86828701611be3565b9250506040611c7b86828701611b36565b9150509250925092565b5f60208284031215611c9a57611c996119cc565b5b5f611ca784828501611be3565b91505092915050565b611cb981611b17565b82525050565b5f602082019050611cd25f830184611cb0565b92915050565b611ce181611a54565b8114611ceb575f5ffd5b50565b5f81359050611cfc81611cd8565b92915050565b5f5f60408385031215611d1857611d176119cc565b5b5f611d2585828601611be3565b9250506020611d3685828601611cee565b9150509250929050565b5f5ffd5b5f5ffd5b7f4e487b71000000000000000000000000000000000000000000000000000000005f52604160045260245ffd5b611d7e82611aaf565b810181811067ffffffffffffffff82111715611d9d57611d9c611d48565b5b80604052505050565b5f611daf6119c3565b9050611dbb8282611d75565b919050565b5f67ffffffffffffffff821115611dda57611dd9611d48565b5b611de382611aaf565b9050602081019050919050565b828183375f83830152505050565b5f611e10611e0b84611dc0565b611da6565b905082815260208101848484011115611e2c57611e2b611d44565b5b611e37848285611df0565b509392505050565b5f82601f830112611e5357611e52611d40565b5b8135611e63848260208601611dfe565b91505092915050565b5f5f5f5f60808587031215611e8457611e836119cc565b5b5f611e9187828801611be3565b9450506020611ea287828801611be3565b9350506040611eb387828801611b36565b925050606085013567ffffffffffffffff811115611ed457611ed36119d0565b5b611ee087828801611e3f565b91505092959194509250565b5f5f60408385031215611f0257611f016119cc565b5b5f611f0f85828601611be3565b9250506020611f2085828601611be3565b9150509250929050565b7f4e487b71000000000000000000000000000000000000000000000000000000005f52602260045260245ffd5b5f6002820490506001821680611f6e57607f821691505b602082108103611f8157611f80611f2a565b5b50919050565b5f606082019050611f9a5f830186611ba5565b611fa76020830185611cb0565b611fb46040830184611ba5565b949350505050565b7f546f6b656e20646f6573206e6f742065786973740000000000000000000000005f82015250565b5f611ff0601483611a91565b9150611ffb82611fbc565b602082019050919050565b5f6020820190508181035f83015261201d81611fe4565b9050919050565b5f8151905061203281611b20565b92915050565b5f6020828403121561204d5761204c6119cc565b5b5f61205a84828501612024565b91505092915050565b5f81905092915050565b7f646174613a6170706c69636174696f6e2f6a736f6e3b6261736536342c0000005f82015250565b5f6120a1601d83612063565b91506120ac8261206d565b601d82019050919050565b5f6120c182611a87565b6120cb8185612063565b93506120db818560208601611aa1565b80840191505092915050565b5f6120f182612095565b91506120fd82846120b7565b915081905092915050565b7f4e487b71000000000000000000000000000000000000000000000000000000005f52601160045260245ffd5b5f61213f82611b17565b91507fffffffffffffffffffffffffffffffffffffffffffffffffffffffffffffffff820361217157612170612108565b5b600182019050919050565b5f81519050919050565b5f82825260208201905092915050565b5f6121a08261217c565b6121aa8185612186565b93506121ba818560208601611aa1565b6121c381611aaf565b840191505092915050565b5f6080820190506121e15f830187611ba5565b6121ee6020830186611ba5565b6121fb6040830185611cb0565b818103606083015261220d8184612196565b905095945050505050565b5f81519050612226816119ff565b92915050565b5f60208284031215612241576122406119cc565b5b5f61224e84828501612218565b91505092915050565b7f3c73766720786d6c6e733d22687474703a2f2f7777772e77332e6f72672f32305f8201527f30302f737667222077696474683d2235303022206865696768743d223530302260208201527f3e00000000000000000000000000000000000000000000000000000000000000604082015250565b5f6122d7604183612063565b91506122e282612257565b604182019050919050565b7f3c726563742077696474683d223130302522206865696768743d2231303025225f8201527f2066696c6c3d2223323232222f3e000000000000000000000000000000000000602082015250565b5f612347602e83612063565b9150612352826122ed565b602e82019050919050565b7f3c7465787420783d223530252220793d223530252220746578742d616e63686f5f8201527f723d226d6964646c65222066696c6c3d2277686974652220666f6e742d73697a60208201527f653d223230223e5641554c5420524543454950543c2f746578743e0000000000604082015250565b5f6123dd605b83612063565b91506123e88261235d565b605b82019050919050565b7f3c7465787420783d223530252220793d223730252220746578742d616e63686f5f8201527f723d226d6964646c65222066696c6c3d22233066302220666f6e742d73697a6560208201527f3d223136223e5573657220546f6b656e2042616c616e63653a20000000000000604082015250565b5f612473605a83612063565b915061247e826123f3565b605a82019050919050565b7f3c2f746578743e000000000000000000000000000000000000000000000000005f82015250565b5f6124bd600783612063565b91506124c882612489565b600782019050919050565b7f3c2f7376673e00000000000000000000000000000000000000000000000000005f82015250565b5f612507600683612063565b9150612512826124d3565b600682019050919050565b5f612527826122cb565b91506125328261233b565b915061253d826123d1565b915061254882612467565b915061255482846120b7565b915061255f826124b1565b915061256a826124fb565b915081905092915050565b7f7b226e616d65223a225661756c742052656365697074222c22646573637269705f8201527f74696f6e223a2241207265636569707420666f7220796f7572207661756c742260208201527f2c22696d616765223a22646174613a696d6167652f7376672b786d6c3b62617360408201527f6536342c00000000000000000000000000000000000000000000000000000000606082015250565b5f61261b606483612063565b915061262682612575565b606482019050919050565b7f227d0000000000000000000000000000000000000000000000000000000000005f82015250565b5f612665600283612063565b915061267082612631565b600282019050919050565b5f6126858261260f565b915061269182846120b7565b915061269c82612659565b915081905092915050565b5f6040820190506126ba5f830185611ba5565b6126c76020830184611cb0565b9392505050565b7f4e487b71000000000000000000000000000000000000000000000000000000005f52601260045260245ffd5b5f61270582611b17565b915061271083611b17565b925082820190508082111561272857612727612108565b5b92915050565b5f61273882611b17565b915061274383611b17565b925082612753576127526126ce565b5b828204905092915050565b5f61276882611b17565b915061277383611b17565b925082820261278181611b17565b9150828204841483151761279857612797612108565b5b509291505056fea264697066735822122094f3c08ba38de2d33251f91c9da41a8a483086c6130b151770647db288ba903664736f6c63430008210033","linkReferences":{}},"methodIdentifiers":{"approve(address,uint256)":"095ea7b3","balanceOf(address)":"70a08231","getApproved(uint256)":"081812fc","isApprovedForAll(address,address)":"e985e9c5","mint(address,address)":"ee1fe2ad","name()":"06fdde03","ownerOf(uint256)":"6352211e","safeTransferFrom(address,address,uint256)":"42842e0e","safeTransferFrom(address,address,uint256,bytes)":"b88d4fde","setApprovalForAll(address,bool)":"a22cb465","supportsInterface(bytes4)":"01ffc9a7","symbol()":"95d89b41","tokenCounter()":"d082e381","tokenIdToVault(uint256)":"16ffc423","tokenURI(uint256)":"c87b56dd","transferFrom(address,address,uint256)":"23b872dd"},"id":42}